:100000000C943E000C945B000C945B000C945B0021
:100010000C945B000C945B000C945B000C94370216
:100020000C9481020C94CB020C945B000C945B004A
:100030000C94B1010C945B000C945B000C945B007D
:100040000C945B000C945B000C945D010C945B00C1
:100050000C945B000C945B000C945B000C945B00B4
:100060000C945B000C945B000C945B000C945B00A4
:100070000C945B000C945B000C945B0011241FBE7D
:10008000CFEFD0E1DEBFCDBF11E0A0E0B1E0E0EC0A
:10009000F8E002C005900D92AA30B107D9F721E02F
:1000A000AAE0B1E001C01D92A431B207E1F70E94BD
:1000B000B4030C945E040C940000EF92FF920F9333
:1000C0001F93CF93DF9381E08093D80080E00DEE03
:1000D00010E06FEE70E04EEE50E027EF30E0C6EF3C
:1000E000D0E0A5EFB0E00F2EF4EFEF2EF12CF02DC5
:1000F000982F9295907FF8019083FB011082FA016E
:100100001082F901108218821C92F70110828F5F11
:10011000863071F78EE08093E20084E08093E30004
:1001200083E18093E40080E28093DE0080EA8093A4
:10013000DB0082E08093D800FFEF20E782E0F150FF
:1001400020408040E1F700C000008091D90082FB90
:10015000882780F991E08927DF91CF911F910F9136
:10016000FF90EF900895CF92DF92EF92FF920F935E
:100170001F938295807F8093ED001092F40010927F
:10018000F500822F8295880F807E8093F600DA0139
:10019000C901689412F8B695A79597958795169416
:1001A000D1F78093F7001092F0001092F1008E2D9D
:1001B0008295880F807E8093F200D801C7016894F1
:1001C00012F8B695A795979587951694D1F78093D1
:1001D000F30080E1C89E600111246068C62AC092C5
:1001E000EF001F910F91FF90EF90DF90CF90089557
:1001F000EF920F931F938295807F8093ED00EEEE38
:10020000F0E080818F7B80831092F400802F880F34
:10021000880F880F8093F000D901C801689414F802
:10022000B695A795979587951694D1F78093F10089
:10023000D901C801072E7DE0B695A79597958795BA
:100240007A95D1F7702D8093F2000F2EF5E1369557
:10025000279517950795FA95D1F7F02D0093F300A0
:10026000662371F0FA018FEF860F90E00196480F38
:10027000591FAAEFB0E081918C93E417F507D9F7E5
:1002800060656093EF00EE20A1F08091EE0086FDA6
:1002900010C080E0EEEEF0E003C0908196FD09C052
:1002A000AFE9BFE01197F1F700C000008F5FE812DF
:1002B000F4CF1F910F91EF9008951F920F920FB6F8
:1002C0000F921124CF92EF92FF920F931F932F93CF
:1002D0003F934F935F936F937F938F939F93AF93CE
:1002E000BF93CF93EF93FF93C091ED008091EE0009
:1002F00085FF1CC08091E00085FF18C080E58093D9
:10030000ED008091FA008093110181E080930A0151
:10031000CC24C394E12CF12C00E014E020E030E088
:1003200040E054E068E085E00E94B3001092EE00E7
:10033000C093ED00FF91EF91CF91BF91AF919F914D
:100340008F917F916F915F914F913F912F911F916D
:100350000F91FF90EF90CF900F900FBE0F901F90D6
:1003600018951F920F920FB60F9211240F900FBE87
:100370000F901F901895CF92EF92FF920F931F93BB
:1003800084B18B6C84B987B1856087B98AB1816883
:100390008AB985B1847385B94098589885B18462CB
:1003A00085B95E9A82E089BD85E18093690087E026
:1003B0008DBB0E945D00CC24C394E12CF12C00E0A5
:1003C00014E020E030E040E054E068E085E00E9486
:1003D000B300789480E091E09093B3008093B200F2
:1003E0008CED90E09093AD008093AC009093A700CB
:1003F0008093A6009093A1008093A00082ED90E0EE
:100400009093B1008093B0009093AB008093AA00CA
:100410009093A5008093A4008CE18093B50081E2C5
:100420008093B7001092B600589840982898109280
:100430008000E1E8F0E010821092850010928400C4
:1004400088E09DE390938900809388008081886094
:100450008083808185608083EFE6F0E08081826028
:1004600080831F910F91FF90EF90CF9008951F927E
:100470000F920FB60F9211248F939F9310920D013C
:1004800010920C011092B6005898409828984E9BF4
:1004900019C09091130180910901981305C083E060
:1004A0008093B600289A04C0589A80E38093B600DF
:1004B000809108018330F1F480910E018F5F809369
:1004C0000E0118C09091130180910901981305C085
:1004D000589A80E38093B60004C0289A83E0809302
:1004E000B60080910801843029F480910E018F5F5D
:1004F00080930E019F918F910F900FBE0F901F90D0
:1005000018951F920F920FB60F9211248F939F93FD
:1005100010920D0110920C011092B600589840985C
:1005200028981A9B19C09091130180910901981382
:1005300005C0589A8CE08093B60004C0409A83E0CE
:100540008093B600809108018630F1F480910E010D
:100550008F5F80930E0118C0909113018091090163
:10056000981305C083E08093B600409A04C0589A5F
:100570008CE08093B60080910801813029F480914D
:100580000E018F5F80930E019F918F910F900FBE90
:100590000F901F9018951F920F920FB60F92112473
:1005A0008F939F9310920D0110920C011092B60040
:1005B0005898409828981D9B19C0909113018091DC
:1005C0000901981305C080E38093B600409A04C0E7
:1005D000289A8CE08093B600809108018530F1F470
:1005E00080910E018F5F80930E0118C090911301CE
:1005F00080910901981305C08CE08093B600289A79
:1006000004C0409A80E38093B60080910801823054
:1006100029F480910E018F5F80930E019F918F913D
:100620000F900FBE0F901F90189523B193B189B111
:10063000207230E0A90155954795559547955595F8
:1006400047959470292F30E035952795240F86FB28
:10065000882780F9820F08950E941503833099F14D
:1006600028F4813059F08230E1F00895853009F4A2
:1006700050C0E0F1863009F45FC0089590911301F5
:1006800080910901981305C083E08093B600409AD9
:1006900004C0589A8CE08093B60081E080930801F2
:1006A00008959091130180910901981305C08CE081
:1006B0008093B600289A04C0409A80E38093B600E5
:1006C00082E08093080190911301809109019813B1
:1006D00005C083E08093B600289A04C0589A80E34E
:1006E0008093B60083E080930801089590911301F0
:1006F00080910901981305C0589A80E38093B60051
:1007000004C0289A83E08093B60084E080930801B7
:1007100008959091130180910901981305C080E319
:100720008093B600409A04C0289A8CE08093B6006B
:1007300085E080930801089590911301809109014B
:10074000981305C0589A8CE08093B60004C0409A74
:1007500083E08093B60086E080930801089595B108
:1007600088E0892785B9089580911201809313014B
:100770000E94BB01F12C0F2EFAEF5F2EF02D0F2EF1
:10078000FEEB2F2EF02DC6EBD0E00F2EF3E03F2E28
:10079000F02D0F2EFCEA6F2E712CF02D0F2EF6EAA5
:1007A0008F2E912CF02D0F2EF0EAAF2EB12CF02DC4
:1007B000DD24D394412C8091110180930F0120916D
:1007C000100190E0821B910907971CF02A5F20938B
:1007D0000F0180910F0180931001952D981B90932C
:1007E0000B0180910B018E3B10F420920B01809144
:1007F0000B018B3F10F050920B01E1E0FE121DC087
:1008000080910B0190E0F30191838083F401918347
:100810008083F5019183808380910B0190E00A979A
:10082000E0EBF0E091838083EAEAF0E0918380835B
:10083000E4EAF0E09183808304C018823882409813
:10084000289880910C0190910D018436910548F40F
:1008500080910C0190910D01019690930D01809370
:100860000C0180910C0190910D018436910538F0B6
:100870002B9880910B01813E28F0F42C0AC02B9A12
:10088000FD2C07C00E942C0310920D0110920C0148
:10089000FD2C80910A01813009F08DCFE42C05E513
:1008A00015E525E535E040E051E068E08D2D0E943A
:1008B000F80040920A010E94AF037DCFF894FFCF69
:0A08C0004142434445464748FF010A
:00000001FF
