:100000000C943E000C9450000C9450000C94500042
:100010000C9450000C9450000C9450000C943A0135
:100020000C9460010C9480010C9450000C945000CE
:100030000C9450000C9450000C9450000C94500000
:100040000C9450000C9450000C94ED000C94500053
:100050000C9450000C9450000C9450000C945000E0
:100060000C9450000C9450000C9450000C945000D0
:100070000C9450000C9450000C94500011241FBE9E
:10008000CFEFD0E1DEBFCDBF21E0A0E0B1E001C005
:100090001D92A430B207E1F70E94E4010C94BC0267
:1000A0000C940000EF92FF920F931F93CF93DF9376
:1000B00081E08093D80080E00DEE10E06FEE70E0FC
:1000C0004EEE50E027EF30E0C6EFD0E0A5EFB0E015
:1000D0000F2EF4EFEF2EF12CF02D982F9295907FAC
:1000E000F8019083FB011082FA011082F90110825D
:1000F00018821C92F70110828F5F863071F78EE0B4
:100100008093E20084E08093E30083E18093E40045
:1001100080E28093DE0080EA8093DB0082E08093BF
:10012000D800FFEF20E782E0F15020408040E1F767
:1001300000C000008091D90082FB882780F991E0FF
:100140008927DF91CF911F910F91FF90EF90089534
:10015000CF92DF92EF92FF920F931F938295807F51
:100160008093ED001092F4001092F500822F82959A
:10017000880F807E8093F600DA01C901689412F836
:10018000B695A795979587951694D1F78093F70024
:100190001092F0001092F1008E2D8295880F807ED3
:1001A0008093F200D801C701689412F8B695A7951C
:1001B000979587951694D1F78093F30080E1C89EB8
:1001C000600111246068C62AC092EF001F910F9150
:1001D000FF90EF90DF90CF9008951F920F920FB68F
:1001E0000F921124CF92EF92FF920F931F932F93B0
:1001F0003F934F935F936F937F938F939F93AF93AF
:10020000BF93EF93FF938091E00085FF1DC080E5D1
:100210008093ED00EAEFF0E080818093030180811C
:10022000808180818081808180818081CC24C39481
:10023000E12CF12C00E014E020E030E040E054E05C
:1002400068E085E00E94A800FF91EF91BF91AF9117
:100250009F918F917F916F915F914F913F912F91DE
:100260001F910F91FF90EF90CF900F900FBE0F90C6
:100270001F9018951F920F920FB60F9211248F9313
:100280009F9395B188E0892785B910920201109259
:1002900001011092B6005898409828984E9B05C0CE
:1002A000589A80E38093B60004C0289A83E0809334
:1002B000B6009F918F910F900FBE0F901F901895D1
:1002C0001F920F920FB60F9211248F93109202017A
:1002D000109201011092B6005898409828981A9BE5
:1002E00005C0409A83E08093B60004C0589A8CE021
:1002F0008093B6008F910F900FBE0F901F901895AE
:100300001F920F920FB60F9211248F931092020139
:10031000109201011092B6005898409828981D9BA1
:1003200005C0289A8CE08093B60004C0409A80E310
:100330008093B6008F910F900FBE0F901F9018956D
:1003400023B193B189B1207230E0A9015595479549
:1003500055954795559547959470292F30E03595DB
:100360002795240F86FB882780F9820F08950E9425
:10037000A0018330A9F028F4813049F0823061F087
:1003800008958530B9F088F08630C9F00895589AFC
:100390008CE08093B6000895409A80E38093B60085
:1003A000589A80E38093B6000895289A83E080935A
:1003B000B6000895289A8CE08093B6000895409A7C
:1003C00083E08093B600089584B18B6C84B987B1C3
:1003D000856087B98AB181688AB985B1847385B926
:1003E0004098589885B1846285B95E9A82E089BD4B
:1003F00085E18093690087E08DBB80E091E0909378
:10040000B3008093B2008CED90E09093AD008093A8
:10041000AC009093A7008093A6009093A1008093D6
:10042000A00082ED90E09093B1008093B000909393
:10043000AB008093AA009093A5008093A4008CE168
:100440008093B50081E28093B7000E945200CC24D3
:10045000C394E12CF12C00E014E020E030E040E017
:1004600054E068E085E00E94A80078941092B600FD
:1004700058984098289880E00F2EFAEF5F2EF02DC4
:100480000F2EFEEB2F2EF02DC6EBD0E00F2EF3E05B
:100490003F2EF02D0F2EFCEAAF2EB12CF02D0F2E9B
:1004A000F6EACF2ED12CF02D0F2EF0EAEF2EF12C04
:1004B000F02D00EB10E00F2EFAEA8F2E912CF02D8C
:1004C0000F2EF4EA6F2E712CF02D4424439490915A
:1004D0000301252D291B20930001909100019E3BD3
:1004E00010F4209200018130D1F48091000190E05D
:1004F000F50191838083F60191838083F7019183D5
:1005000080838091000190E00A97F80191838083B5
:10051000F40191838083F3019183808304C0188266
:100520003882409828988091010190910201843688
:10053000910548F4809101019091020101969093F8
:1005400002018093010180910101909102018436A2
:10055000910538F02B9880910001813E28F080E0D1
:10056000B6CF2B9A842DB3CF0E94B701109202010F
:0C05700010920101842DABCFF894FFCF56
:00000001FF
