:100000000C943E000C9450000C9450000C94500042
:100010000C9450000C9450000C9450000C94500020
:100020000C9450000C9450000C9450000C94500010
:100030000C9450000C9450000C9450000C94500000
:100040000C9450000C9450000C9450000C945000F0
:100050000C9450000C9450000C9450000C945000E0
:100060000C9450000C9450000C9450000C945000D0
:100070000C9450000C9450000C94500011241FBE9E
:10008000CFEFD0E1DEBFCDBF21E0A0E0B1E001C005
:100090001D92A030B207E1F70E9483000C94210169
:1000A0000C9400001092B60058984098289883301D
:1000B000B1F028F4813049F0823061F00895853044
:1000C000C1F090F08630D1F00895409A80E380939B
:1000D000B600089583E08093B600289A089583E0DF
:1000E0008093B600409A0895589A8CE08093B600A9
:1000F0000895589A80E38093B6000895289A8CE07A
:100100008093B600089584B18B6C84B987B1856003
:1001100087B98AB181688AB985B1847385B94098F5
:10012000589885B1846285B95E9A82E089BD85E17F
:100130008093690087E08DBB80E091E09093B300ED
:100140008093B2008CED90E09093AD008093AC0072
:100150009093A7008093A6009093A1008093A000A5
:1001600082ED90E09093B1008093B0009093AB004B
:100170008093AA009093A5008093A4008CE18093C3
:10018000B50081E28093B7001092B600589840986D
:10019000289881E090E00E9452002FEF83E294EFD4
:1001A000215080409040E1F700C0000085E090E0E1
:1001B0000E9452002FEF83E294EF21508040904044
:1001C000E1F700C0000084E090E00E9452002FEFB1
:1001D00083E294EF215080409040E1F700C000009E
:1001E00086E090E00E9452002FEF83E294EF2150CE
:1001F00080409040E1F700C0000082E090E00E9463
:1002000052002FEF83E294EF215080409040E1F7BD
:1002100000C0000083E090E00E9452002FEF83E2D4
:1002200094EF215080409040E1F700C000002FEF94
:1002300083E294EF215080409040E1F700C000003D
:06024000A8CFF894FFCFE7
:00000001FF
