:100000000C943E000C945B000C945B000C945B0021
:100010000C945B000C945B000C945B000C94EF0060
:100020000C9421010C9453010C945B000C945B0024
:100030000C945B000C945B000C948A010C945B00A4
:100040000C945B000C945B000C94A2000C945B007D
:100050000C945B000C945B000C945B000C945B00B4
:100060000C945B000C945B000C945B000C945B00A4
:100070000C945B000C945B000C945B0011241FBE7D
:10008000CFEFD0E1DEBFCDBF11E0A0E0B1E0E0E90D
:10009000F3E002C005900D92A230B107D9F721E03C
:1000A000A2E0B1E001C01D92A630B207E1F70E94C4
:1000B000AE010C94C6010C940000CF92DF92EF9237
:1000C000FF920F931F938295807F8093ED00109293
:1000D000F4001092F500822F8295880F807E809325
:1000E000F600DA01C901689412F8B695A7959795BC
:1000F00087951694D1F78093F7001092F000109234
:10010000F1008E2D8295880F807E8093F200D801B9
:10011000C701689412F8B695A79597958795169498
:10012000D1F78093F30080E1C89E600111246068DC
:10013000C62AC092EF001F910F91FF90EF90DF90C1
:10014000CF9008951F920F920FB60F921124CF9265
:10015000EF92FF920F931F932F933F934F935F93D1
:100160006F937F938F939F93AF93BF93EF93FF937F
:100170008091E00085FF1DC080E58093ED00EAEFEF
:10018000F0E0808180930501808180818081808181
:10019000808180818081CC24C394E12CF12C00E00B
:1001A00014E020E030E040E054E068E085E00E94A8
:1001B0005D00FF91EF91BF91AF919F918F917F91E2
:1001C0006F915F914F913F912F911F910F91FF90F0
:1001D000EF90CF900F900FBE0F901F9018951F9229
:1001E0000F920FB60F9211248F9310920301109269
:1001F00002011092B6005898409828984E9B0EC065
:10020000589A80E38093B60080910001833099F47E
:10021000809104018F5F809304010DC0289A83E0D0
:100220008093B60080910001843029F4809104010C
:100230008F5F809304018F910F900FBE0F901F90DE
:1002400018951F920F920FB60F9211248F93109250
:100250000301109202011092B60058984098289815
:100260001A9B0EC0409A83E08093B60080910001F3
:10027000863099F4809104018F5F809304010DC052
:10028000589A8CE08093B60080910001813029F467
:10029000809104018F5F809304018F910F900FBEB6
:1002A0000F901F9018951F920F920FB60F92112466
:1002B0008F9310920301109202011092B600589889
:1002C000409828981D9B0EC0289A8CE08093B60019
:1002D00080910001853099F4809104018F5F8093B3
:1002E00004010DC0409A80E38093B6008091000124
:1002F000823029F4809104018F5F809304018F91F3
:100300000F900FBE0F901F90189595B188E0892728
:1003100085B908951F920F920FB60F9211242F9353
:100320003F934F935F936F937F938F939F93AF937D
:10033000BF93EF93FF930E948501FF91EF91BF91CF
:10034000AF919F918F917F916F915F914F913F916D
:100350002F910F900FBE0F901F901895259A2798F8
:10036000E1E8F0E0808184608083EFE6F0E0808166
:10037000808378942FEF83ED90E32150804090406C
:10038000E1F700C000000E948501F4CFF894FFCF90
:02039000FF006C
:00000001FF
