:100000000C943E000C945B000C945B000C945B0021
:100010000C945B000C945B000C945B000C94AA01A4
:100020000C94DC010C940E020C945B000C945B00AD
:100030000C945B000C945B000C945B000C945B00D4
:100040000C945B000C945B000C945D010C945B00C1
:100050000C945B000C945B000C945B000C945B00B4
:100060000C945B000C945B000C945B000C945B00A4
:100070000C945B000C945B000C945B0011241FBE7D
:10008000CFEFD0E1DEBFCDBF11E0A0E0B1E0E8E10D
:10009000F7E002C005900D92A230B107D9F721E038
:1000A000A2E0B1E001C01D92A730B207E1F70E94C3
:1000B0009B020C948A030C940000EF92FF920F9322
:1000C0001F93CF93DF9381E08093D80080E00DEE03
:1000D00010E06FEE70E04EEE50E027EF30E0C6EF3C
:1000E000D0E0A5EFB0E00F2EF4EFEF2EF12CF02DC5
:1000F000982F9295907FF8019083FB011082FA016E
:100100001082F901108218821C92F70110828F5F11
:10011000863071F78EE08093E20084E08093E30004
:1001200083E18093E40080E28093DE0080EA8093A4
:10013000DB0082E08093D800FFEF20E782E0F150FF
:1001400020408040E1F700C000008091D90082FB90
:10015000882780F991E08927DF91CF911F910F9136
:10016000FF90EF900895CF92DF92EF92FF920F935E
:100170001F938295807F8093ED001092F40010927F
:10018000F500822F8295880F807E8093F600DA0139
:10019000C901689412F8B695A79597958795169416
:1001A000D1F78093F7001092F0001092F1008E2D9D
:1001B0008295880F807E8093F200D801C7016894F1
:1001C00012F8B695A795979587951694D1F78093D1
:1001D000F30080E1C89E600111246068C62AC092C5
:1001E000EF001F910F91FF90EF90DF90CF90089557
:1001F000EF920F931F938295807F8093ED00EEEE38
:10020000F0E080818F7B80831092F400802F880F34
:10021000880F880F8093F000D901C801689414F802
:10022000B695A795979587951694D1F78093F10089
:10023000D901C801072E7DE0B695A79597958795BA
:100240007A95D1F7702D8093F2000F2EF5E1369557
:10025000279517950795FA95D1F7F02D0093F300A0
:10026000662371F0FA018FEF860F90E00196480F38
:10027000591FAAEFB0E081918C93E417F507D9F7E5
:1002800060656093EF00EE20A1F08091EE0086FDA6
:1002900010C080E0EEEEF0E003C0908196FD09C052
:1002A000AFE9BFE01197F1F700C000008F5FE812DF
:1002B000F4CF1F910F91EF9008951F920F920FB6F8
:1002C0000F921124CF92EF92FF920F931F932F93CF
:1002D0003F934F935F936F937F938F939F93AF93CE
:1002E000BF93EF93FF938091E00085FF1DC080E5F1
:1002F0008093ED00EAEFF0E0808180930601808139
:10030000808180818081808180818081CC24C394A0
:10031000E12CF12C00E014E020E030E040E054E07B
:1003200068E085E00E94B300FF91EF91BF91AF912B
:100330009F918F917F916F915F914F913F912F91FD
:100340001F910F91FF90EF90CF900F900FBE0F90E5
:100350001F9018951F920F920FB60F9211248F9332
:1003600010920401109203011092B6005898409820
:1003700028984E9B0EC0589A80E38093B6008091D7
:100380000001833099F4809105018F5F809305010E
:100390000DC0289A83E08093B600809100018430DC
:1003A00029F4809105018F5F809305018F910F9053
:1003B0000FBE0F901F9018951F920F920FB60F92BD
:1003C00011248F9310920401109203011092B60031
:1003D0005898409828981A9B0EC0409A83E08093C2
:1003E000B60080910001863099F4809105018F5FFD
:1003F000809305010DC0589A8CE08093B6008091DF
:100400000001813029F4809105018F5F80930501FF
:100410008F910F900FBE0F901F9018951F920F9203
:100420000FB60F9211248F931092040110920301C2
:100430001092B6005898409828981D9B0EC0289A94
:100440008CE08093B60080910001853099F4809112
:1004500005018F5F809305010DC0409A80E3809372
:10046000B60080910001823029F4809105018F5FF0
:10047000809305018F910F900FBE0F901F901895DC
:1004800023B193B189B1207230E0A9015595479508
:1004900055954795559547959470292F30E035959A
:1004A0002795240F86FB882780F9820F08950E94E4
:1004B00040028330D9F028F4813049F0823079F05D
:1004C0000895853019F1D0F0863041F10895589A99
:1004D0008CE08093B60081E0809300010895409AFB
:1004E00080E38093B60082E080930001589A80E315
:1004F0008093B60083E0809300010895289A83E0FA
:100500008093B60084E0809300010895289A8CE0DF
:100510008093B60085E0809300010895409A83E0BF
:100520008093B60086E080930001089595B188E03D
:10053000892785B9089584B18B6C84B987B18560AA
:1005400087B98AB181688AB985B1847385B94098C1
:10055000589885B1846285B95E9A82E089BD85E14B
:100560008093690087E08DBB0E945D00CC24C3941A
:10057000E12CF12C00E014E020E030E040E054E019
:1005800068E085E00E94B300789480E091E0909369
:10059000B3008093B2008CED90E09093AD00809317
:1005A000AC009093A7008093A6009093A100809345
:1005B000A00082ED90E09093B1008093B000909302
:1005C000AB008093AA009093A5008093A4008CE1D7
:1005D0008093B50081E28093B7001092B6005898DE
:1005E0004098289880E00F2EFAEFFF2EF02D0F2E66
:1005F000FEEB2F2EF02DC6EBD0E00F2EF3E03F2EBA
:10060000F02D0F2EFCEA6F2E712CF02D0F2EF6EA36
:100610008F2E912CF02D0F2EF0EACF2ED12CF02D15
:100620000F2EF0EBAF2EB12CF02D0F2EFAEA4F2E3D
:10063000512CF02D909106012F2D291B20930201A2
:10064000909102019E3B10F4209202018130D9F476
:100650008091020190E0F30191838083F401918302
:100660008083F601918380838091020190E00A9754
:10067000F50191838083F20191838083E4EAF0E0C5
:100680009183808304C01882388240982898809192
:100690000301909104018436910548F4809103018F
:1006A000909104010196909304018093030180913D
:1006B00003019091040184369105A0F00E949602F6
:1006C0006894EE24E1F800E010E09801A60161E0F2
:1006D00081E00E94F8002B9880910201813E90F009
:1006E00080E0A8CF0E9496026894EE24E1F800E032
:1006F00010E09801A60161E081E00E94F8002B9AC9
:1007000081E098CF0E9457021092040110920301D9
:0807100081E090CFF894FFCFC7
:02071800FF00E0
:00000001FF
