:100000000C943E000C945B000C945B000C945B0021
:100010000C945B000C945B000C945B000C94F80057
:100020000C942A010C945C010C945B000C945B0012
:100030000C945B000C945B000C945B000C945B00D4
:100040000C945B000C945B000C94C4020C945B0059
:100050000C945B000C945B000C945B000C945B00B4
:100060000C945B000C945B000C945B000C945B00A4
:100070000C945B000C945B000C945B0011241FBE7D
:10008000CFEFD0E1DEBFCDBF11E0A0E0B1E0E4E40E
:10009000F6E002C005900D92A230B107D9F721E039
:1000A000A2E0B1E001C01D92A830B207E1F70E94C2
:1000B000E4010C9420030C940000EF92FF920F9344
:1000C0001F93CF93DF9381E08093D80080E00DEE03
:1000D00010E06FEE70E04EEE50E027EF30E0C6EF3C
:1000E000D0E0A5EFB0E00F2EF4EFEF2EF12CF02DC5
:1000F000982F9295907FF8019083FB011082FA016E
:100100001082F901108218821C92F70110828F5F11
:10011000863071F78EE08093E20084E08093E30004
:1001200083E18093E40080E28093DE0080EA8093A4
:10013000DB0082E08093D800FFEF20E782E0F150FF
:1001400020408040E1F700C000008091D90082FB90
:10015000882780F991E08927DF91CF911F910F9136
:10016000FF90EF900895CF92DF92EF92FF920F935E
:100170001F938295807F8093ED001092F40010927F
:10018000F500822F8295880F807E8093F600DA0139
:10019000C901689412F8B695A79597958795169416
:1001A000D1F78093F7001092F0001092F1008E2D9D
:1001B0008295880F807E8093F200D801C7016894F1
:1001C00012F8B695A795979587951694D1F78093D1
:1001D000F30080E1C89E600111246068C62AC092C5
:1001E000EF001F910F91FF90EF90DF90CF90089557
:1001F0001F920F920FB60F9211248F931092040149
:10020000109203011092B6005898409828984E9B7F
:100210000EC0589A80E38093B6008091010183302C
:1002200099F4809106018F5F809306010DC0289A92
:1002300083E08093B60080910101843029F480919D
:1002400006018F5F809306018F910F900FBE0F9074
:100250001F9018951F920F920FB60F9211248F9333
:1002600010920401109203011092B6005898409821
:1002700028981A9B0EC0409A83E08093B600809124
:100280000101863099F4809106018F5F8093060109
:100290000DC0589A8CE08093B600809101018130A6
:1002A00029F4809106018F5F809306018F910F9052
:1002B0000FBE0F901F9018951F920F920FB60F92BE
:1002C00011248F9310920401109203011092B60032
:1002D0005898409828981D9B0EC0289A8CE08093CF
:1002E000B60080910101853099F4809106018F5FFD
:1002F000809306010DC0409A80E38093B600809100
:100300000101823029F4809106018F5F80930601FC
:100310008F910F900FBE0F901F90189523B193B13E
:1003200089B1207230E0A9015595479555954795BB
:10033000559547959470292F30E035952795240FD2
:1003400086FB882780F9820F08950E948E018330F2
:10035000D9F028F4813049F0823079F00895853061
:1003600019F1D0F0863041F10895589A8CE08093CD
:10037000B60081E0809301010895409A80E3809364
:10038000B60082E080930101589A80E38093B60022
:1003900083E0809301010895289A83E08093B6005A
:1003A00084E0809301010895289A8CE08093B60040
:1003B00085E0809301010895409A83E08093B60020
:1003C00086E080930101089584B18B6C84B987B174
:1003D000856087B98AB181688AB985B1847385B926
:1003E0004098589885B1846285B95E9A82E089BD4B
:1003F00085E18093690087E08DBB0E945D00CC247D
:10040000C394E12CF12C00E014E020E030E040E067
:1004100054E068E085E00E94B300789480E091E0C9
:100420009093B3008093B2008CED90E09093AD0078
:100430008093AC009093A7008093A6009093A100B6
:100440008093A00082ED90E09093B1008093B00083
:100450009093AB008093AA009093A5008093A40092
:100460008CE18093B50081E28093B7001092B600D2
:1004700058984098289880E00F2EFAEF5F2EF02DC4
:100480000F2EFEEB2F2EF02DC6EBD0E00F2EF3E05B
:100490003F2EF02D0F2EFCEAAF2EB12CF02D0F2E9B
:1004A000F6EACF2ED12CF02D0F2EF0EAEF2EF12C04
:1004B000F02D00EB10E00F2EFAEA8F2E912CF02D8C
:1004C0000F2EF4EA6F2E712CF02D4424439490915A
:1004D0000701252D291B20930201909102019E3BCB
:1004E00010F4209202018130D1F48091020190E059
:1004F000F50191838083F60191838083F7019183D5
:1005000080838091020190E00A97F80191838083B3
:10051000F40191838083F3019183808304C0188266
:100520003882409828988091030190910401843684
:10053000910548F4809103019091040101969093F4
:10054000040180930301809103019091040184369A
:10055000910540F085B115B880910201813E38F0D7
:1005600080E0B5CF85B1876F85B9842DB0CF0E946B
:10057000A5011092040110920301842DA8CF95B11A
:1005800088E0892785B908951F920F920FB60F92C0
:100590001124CF92EF92FF920F931F932F933F93CB
:1005A0004F935F936F937F938F939F93AF93BF937B
:1005B000EF93FF938091E00085FF2CC080E580934E
:1005C000ED00EAEFF0E08081809307018081808177
:1005D000808180818081808180810E94BF02909192
:1005E000050180910001981710F01092050180918B
:1005F00005018F5F80930501CC24C394E12CF12C7D
:1006000000E014E020E030E040E054E068E085E005
:100610000E94B300FF91EF91BF91AF919F918F9195
:100620007F916F915F914F913F912F911F910F910A
:10063000FF90EF90CF900F900FBE0F901F901895E6
:04064000F894FFCF5C
:0206440005FFB0
:00000001FF
