S011000063635F6D65726765322E73726563AC
S1130000F6C000000C94C6080C9483080EC10000CE
S11300100CC100000AC1000008C1000006C10000B4
S113002004C100000C94060900C10000FEC00000D9
S1130030FCC00000FAC00000F8C00000F6C00000D8
S1130040F4C000000C947908F0C00000EEC0000079
S1130050ECC000000C945208E8C00000E6C00000A8
S1130060E4C000000C940F0B0C946D0BDEC0000078
S1130070DCC00000DAC00000D8C00000D6C0000018
S1130080D4C00000D2C00000D0C00000CEC0000028
S11300900C943E0B0C949B0BC8C00000C6C000001F
S11300A0C4C00000C2C00000C0C00000BEC0000048
S11300B0BCC00000BAC00000B8C00000B6C0000058
S11300C0B4C00000B2C00000B0C00000AEC0000068
S11300D0ACC00000AAC00000A8C00000A6C0000078
S11300E0A4C0000015027604D202ED020803230323
S11300F03E03590374038F03AA03C503E003F20309
S113010004041604280443045D0476047604760487
S1130110760476047604760476047604760476040B
S113012076047604760476047604760476047604FB
S113013076047604760476047604760476047604EB
S113014076047604760476047604760476047604DB
S113015076047604760476047604760476047604CB
S113016076047604760476047604760476047604BB
S113017076047604760476047604760476047604AB
S1130180760476047604760476047604760476049B
S1130190760476047604760476047604760476048B
S11301A0760476047604760476047604760476047B
S11301B0760476047604760476047604760476046B
S11301C0760430024B0276047604760476047604D0
S11301D07604760476046602810276047604760454
S11301E0760476047604760476049C02B70211241D
S11301F01FBECFEFD1E2DEBFCDBF18E0A0E0B2E07A
S1130200E4EAFEE100E00BBF02C007900D92AC3FB0
S1130210B107D9F72AE0ACEFB8E001C01D92AB32C8
S1130220B207E1F71ED60C94500FEACEEAE7F0E0ED
S11302308081806880830895EAE7F0E09081987F68
S113024090839081892B80830895ECE7F0E090817E
S11302509C7F9083208130E4839FC0011124822BF2
S113026080830895CF93C62F10927A00ECE7F0E0D4
S113027090819F7D9083E0DF8C2FE7DFD7DFCF91E4
S11302800895ECE7F0E09081907E9083883060F0F0
S1130290EBE7F0E0908198609083ECE7F0E09081E8
S11302A08850892B80830AC0EBE7F0E09081977F28
S11302B09083ECE7F0E09081892B8083EAE7F0E01B
S11302C0808180648083808186FDFDCF8091780069
S11302D0909179000895D5DF9695879596958795A1
S11302E008958F929F92AF92BF92CF92DF92EF9236
S11302F0FF920F931F93CF93DF93C82FD62F6A01DA
S1130300480159010E945C0A8501740196014D2F30
S1130310682F8C2F0E94750ADF91CF911F910F9146
S1130320FF90EF90DF90CF90BF90AF909F908F9011
S11303300895AF92BF92CF92DF92EF92FF920F9304
S11303401F93CF93C82F7B016A0159010E94F20ABF
S11303508295869586958370823061F0833091F022
S11303608130E1F485019601A70161E68C2F0E949A
S1130370C90914C085019601A70161E78C2F0E9469
S1130380C9090CC085019601A70161E68C2F0E9462
S1130390C9099601A70161E78C2FFBD7CF911F9163
S11303A00F91FF90EF90DF90CF90BF90AF900895A2
S11303B00F931F93CF93DF93182F092F5F934F93BE
S11303C07F936F931F9288E28F93D0E0DF93C0E016
S11303D0CF930E94670CDF93CF930F931F9388E210
S11303E092E09F938F931F9282E38F93CF93DF9337
S11303F00E94670C62E370E08D2F9C2FB6D48DB7FA
S11304009EB742960FB6F8949EBF0FBE8DBFDF9184
S1130410CF911F910F9108956538710508F066C258
S1130420FB01EE58FF4F0C94550C8230910561F09E
S11304308330910579F0019709F058C26EE272E0B9
S113044084E392E0B5CF089569E372E080E492E03A
S1130450AFCF08956AE472E080E592E0A9CF0895F1
S11304608230910561F08330910579F0019709F0AC
S11304703DC26AE572E084E392E09ACF08956FE6A4
S113048072E080E492E094CF089565E872E080E53C
S113049092E08ECF08958230910561F0833091050A
S11304A079F0019709F022C263EA72E084E392E0F2
S11304B07FCF08956DEB72E080E492E079CF0895E8
S11304C068ED72E080E592E073CF08958230910583
S11304D061F08330910579F0019709F007C26BEF61
S11304E072E084E392E064CF089560E173E080E415
S11304F092E05ECF089566E273E080E592E058CF23
S113050008958230910561F08330910579F0019767
S113051009F0ECC164E473E084E392E049CF089508
S11305206EE573E080E492E043CF089569E773E0F9
S113053080E592E03DCF08958230910561F08330EB
S1130540910579F0019709F0D1C16CE973E084E376
S113055092E02ECF089561EB73E080E492E028CF1F
S1130560089567EC73E080E592E022CF089582302D
S1130570910561F08330910579F0019709F0B6C1D6
S113058065EE73E084E392E013CF08956FEF73E0B8
S113059080E492E00DCF08956AE174E080E592E092
S11305A007CF08958230910561F08330910579F089
S11305B0019709F09BC16DE374E084E392E0F8CE07
S11305C008956BE574E080E492E0F2CE089562E869
S11305D074E080E592E0ECCE08958230910561F0FC
S11305E08330910579F0019709F080C16DE374E0DF
S11305F084E392E0DDCE089568EA74E080E492E05A
S1130600D7CE089560ED74E080E592E0D1CE0895F0
S11306108230910561F08330910579F0019709F0FA
S113062065C167EF74E084E392E0C2CE089566E1A9
S113063075E080E492E0BCCE08956EE375E080E559
S113064092E0B6CE08958230910561F08330910531
S113065079F0019709F04AC167EF74E084E392E00E
S1130660A7CE089565E675E080E492E0A1CE0895F2
S11306706EE875E080E592E09BCE089582309105A6
S113068061F08330910579F0019709F02FC166EB91
S113069075E084E392E08CCE089560ED75E080E42B
S11306A092E086CE089563EF75E080E592E080CE17
S11306B008958230910561F08330910579F00197B6
S11306C009F014C166EB75E084E392E071CE0895FD
S11306D065E176E080E492E06BCE089569E376E02C
S11306E080E592E065CE08958230910561F0833013
S11306F0910579F0019709F0F9C066EB75E084E3A0
S113070092E056CE08956CE576E080E492E050CE17
S1130710089569E776E080E592E04ACE0895823054
S1130720910561F08330910579F0019709F0DEC0FD
S113073066E976E084E392E03BCE089560EB76E0F0
S113074080E492E035CE089563ED76E080E592E0B2
S11307502FCE08958230910561F08330910579F0B0
S1130760019709F0C3C066EB75E084E392E020CE04
S1130770089565E176E080E492E01ACE089569E395
S113078076E080E592E014CE08958230910561F020
S11307908330910579F0019709F0A8C066E976E005
S11307A084E392E005CE089565EF76E080E492E07C
S11307B0FFCD089561E177E080E592E0F9CD0895F9
S11307C08130910519F0039739F008956DE277E0CF
S11307D084E392E0EDCD089563E477E080E592E070
S11307E0E7CD08958130910519F0039739F0089504
S11307F06DE277E084E392E0DBCD089569E677E08B
S113080080E592E0D5CD08958130910519F00397E4
S113081039F0089560E977E084E392E0C9CD089562
S113082069EA77E080E592E0C3CD089581309105CF
S113083019F0039739F0089567EC77E084E392E0C8
S1130840B7CD089566ED77E080E592E0B1CD0895E7
S11308508230910561F08330910579F0019709F0B8
S113086045C069EE77E084E392E0A2CD089562E0AA
S113087078E080E492E09CCD089568E178E080E53A
S113088092E096CD08958230910559F08330910518
S113089071F0019759F563E378E084E392E088CD41
S11308A0089561E578E080E492E082CD089568E7F8
S11308B078E080E592E07CCD08958230910559F08E
S11308C08330910571F0019789F463E378E084E360
S11308D092E06ECD08956EE978E080E492E068CD10
S11308E0089566EC78E080E592E062CD089540E0FA
S11308F050E092CD0895E9E6F0E080818A6080833B
S113090083E08DBB81E08093680080E880936B0076
S1130910089582EC8DB91EB887E08093010183E0CD
S11309208093020187E684B981E085B998E19093C8
S11309300A0110920B0188EC8AB91AB888E087B9C9
S113094018B810920401E5E0F1E0808180648083AE
S113095091B980E182B980E280930701CCCF0895F8
S1130960D8DF57D680E09BE414D761E086E07ADCD8
S113097081E0EBD482E0E9D484E0E7D4E5E0F1E07F
S1130980808180648083089584B5826084BD85B548
S1130990836085BD8AEF87BDEEE6F0E080818260EA
S11309A08083109280008DE08093810088E99AE32F
S11309B0909389008093880082E080936F0008956B
S11309C0E0911002F09111029F01241B350BDC0110
S11309D04D915C91420F531FA4E6A49FC001A59FB3
S11309E0900D11246E0F7F1F620F731F4AD76D3451
S11309F010F4862F089580E008950F931F93CF93EA
S1130A00DF93EC0100914D0910E085E090E039DCC2
S1130A10000F111FF801E75CF64F9183808310915A
S1130A204D0981E0810F80934D0982E090E029DC3B
S1130A30E12FF0E0EE0FFF1FEB5DF64F9183808313
S1130A4080914D09883010F010924D09E9E3F9E0E6
S1130A50A5E2B9E069E479E080E090E020E030E0EC
S1130A6041915191240F351F4D915D91840F951F34
S1130A70E617F707A9F736952795369527953695FE
S1130A802795398328836091120270911302409153
S1130A90060250910702461B570B24173507D0F165
S1130AA09695879596958795969587954091020298
S1130AB050910302461B570B8417950768F1409128
S1130AC0080250910902461B570B4217530730F195
S1130AD04091040250910502461B570B48175907D1
S1130AE0F8F0281B390BC901992324F48827992786
S1130AF0821B930B2091510930915209821793075D
S1130B0088F020910002309101022817390760F023
S1130B1080E00BC081E009C081E007C082E005C02D
S1130B2082E003C083E001C083E0DF91CF911F9195
S1130B300F910895EF92FF921F93CF93DF9300D00C
S1130B40CDB7DEB77C011A821982CE01019655DF3A
S1130B50182F40910602509107026091080270918B
S1130B600902CE0101962CDFF7018083123051F087
S1130B70133071F0113089F46EE070E082E090E09F
S1130B80B6DE0BC06EE070E082E090E0B0DE05C03F
S1130B906EE070E082E090E0AADE812F0F900F906B
S1130BA0DF91CF911F91FF90EF9008950F931F93C2
S1130BB0CF93DF93EC010091240910E08AE090E0E8
S1130BC060DB000F111FF801E05FF64F9183808313
S1130BD01091240981E0810F8093240988E090E03A
S1130BE050DBE12FF0E0EE0FFF1FE450F74F91834D
S1130BF0808380912409883010F010922409E0E168
S1130C00F9E0ACEFB8E060E279E080E090E020E069
S1130C1030E041915191240F351F4D915D91840F26
S1130C20951FE617F707A9F7369527953695279563
S1130C3036952795AC015695479556954795569503
S1130C404795B901641B750BCB01992324F48827BC
S1130C509927861B970BFC01398328836091120224
S1130C607091130280910C0290910D02861B970BD8
S1130C702817390758F080910E0290910F02860FC1
S1130C80971F8217930720F482E003C081E001C01C
S1130C9080E020910A0230910B02261B370B421789
S1130CA0530710F484600AC020910E0230910F02A1
S1130CB0620F731F6417750708F488602091510947
S1130CC030915209E217F30738F020910002309175
S1130CD001022E173F0708F48061DF91CF911F9125
S1130CE00F910895EF92FF921F93CF93DF9300D05B
S1130CF0CDB7DEB77C011A821982CE01019656DF88
S1130D00182F40910C0250910D0260910E027091C7
S1130D100F02CE01019654DEF7018083123051F0A8
S1130D20133071F0113089F469E070E082E090E0F2
S1130D30DEDD0BC06AE070E082E090E0D8DD05C043
S1130D406BE070E082E090E0D2DD812F0F900F9095
S1130D50DF91CF911F91FF90EF900895E8E0F1E0CB
S1130D60908180E2892780830895FF920F931F93D7
S1130D70CF93DF938C01F62E84E427D5FF2041F036
S1130D80E8010F0D111D899120D5C017D107D9F79E
S1130D908DE01BD58AE019D5DF91CF911F910F917A
S1130DA0FF900895CF93DF9300D000D0CDB7DEB786
S1130DB080915309853620F48F5F8093530902C0D4
S1130DC01092530980919B09982F990F80919A0949
S1130DD0880F880F892B90919C09892B8983809196
S1130DE04F098A8380914E098B83809150098C83AB
S1130DF064E0CE010196B9DF0F900F900F900F9031
S1130E00DF91CF910895CF93DF93EC018881809394
S1130E108A09C8DF1882DF91CF910895843421F4C0
S1130E2081E0809385090DC090918509913049F442
S1130E30E09184099E0F90938409F0E0EC5AF64FF8
S1130E408083E0918409E93058F0F0E0ED5AF64FE0
S1130E501082109284091092850984E599E0D3CF19
S1130E6008957EDD91DD10929A092FEF89E698E1CD
S1130E70215080409040E1F700C000007894F8D4FD
S1130E80813011F4FBD4CADF8DEE98E0E3D4F7CFC0
S1130E900F931F93CF93DF931F92CDB7DEB780914B
S1130EA08809909189098536910534F401969093C7
S1130EB089098093880904C01092890910928809CD
S1130EC08091030186FD1EC081E080939C0980917E
S1130ED09E0990919F099C012F5F3F4F30939F097A
S1130EE020939E09813D9740A8F080919D0981112E
S1130EF011C081E080939D0990919B09892780937B
S1130F009B0908C010929C0910929D0910929F0998
S1130F1010929E0980914F098093920980918609CD
S1130F2090918709449778F0109287091092860966
S1130F301092270206E616E626E634E042E959E076
S1130F4068E081E0CED980911D0290911E02C39782
S1130F5068F010921E0210921D0201E010E020E4DD
S1130F6038E04FE152E068E084E0BBD980911B0295
S1130F7090911C02C39798F010921C0210921B02CD
S1130F80EAE8F9E08FEF808381838283838301E041
S1130F9010E020E039E0AF0168E082E0A2D980915E
S1130FA0190290911A028536910520F010921A02C6
S1130FB0109219028091170290911802C39720F0A1
S1130FC01092180210921702809186099091870955
S1130FD00196909387098093860980911D029091D0
S1130FE01E02019690931E0280931D0280911B02A3
S1130FF090911C02019690931C0280931B02809195
S1131000190290911A02019690931A028093190280
S11310108091170290911802019690931802809380
S11310201702809116028B3050F0CE01019682DDBA
S1131030811103C0898180934F0910921602809117
S113104015028B3050F0CE0101964CDE811103C0A5
S1131050898180934E0910921502809114028B307D
S113106030F084E038D980935009109214028091B2
S113107016028F5F80931602809115028F5F809312
S11310801502809114028F5F8093140280914F099E
S113109080939209809320020F90DF91CF911F914A
S11310A00F9108951F920F920FB60F9211240BB651
S11310B00F922F933F934F935F936F937F938F93ED
S11310C09F93AF93BF93EF93FF93E2DEFF91EF9172
S11310D0BF91AF919F918F917F916F915F914F914C
S11310E03F912F910F900BBE0F900FBE0F901F904A
S11310F018951F920F920FB60F9211240F900FBEE6
S11311000F901F9018951F920F920FB60F921124F3
S11311100BB60F922F933F934F935F936F937F93ED
S11311208F939F93AF93BF93EF93FF93CF93DF93EB
S1131130CDB7DEB72D97DEBFCDBF10DE81E0809343
S113114027029E01275F3F4FAE014F5F5F4FBE01F5
S1131150635F7F4FEED82D960FB6F894DEBF0FBEB7
S1131160CDBFDF91CF91FF91EF91BF91AF919F914F
S11311708F917F916F915F914F913F912F910F903C
S11311800BBE0F900FBE0F901F9018951F920F92D9
S11311900FB60F9211240BB60F922F933F934F93D8
S11311A05F936F937F938F939F93AF93BF93EF93CB
S11311B0FF93CF93DF93CDB7DEB72D97DEBFCDBFBF
S11311C09E01275F3F4FAE014F5F5F4FBE01635FDC
S11311D07F4F82E0AED82D960FB6F894DEBF0FBED7
S11311E0CDBFDF91CF91FF91EF91BF91AF919F91CF
S11311F08F917F916F915F914F913F912F910F90BC
S11312000BBE0F900FBE0F901F9018951F920F9258
S11312100FB60F9211240BB60F922F933F934F9357
S11312205F936F937F938F939F93AF93BF93EF934A
S1131230FF93CF93DF93CDB7DEB72D97DEBFCDBF3E
S11312409E01275F3F4FAE014F5F5F4FBE01635F5B
S11312507F4F84E06ED82D960FB6F894DEBF0FBE94
S1131260CDBFDF91CF91FF91EF91BF91AF919F914E
S11312708F917F916F915F914F913F912F910F903B
S11312800BBE0F900FBE0F901F901895823051F037
S1131290843071F0813069F4E2E0F1E080818E7F86
S11312A080830895E2E0F1E080818D7F808308955A
S11312B028980895823051F0843071F0813069F4B7
S11312C0E2E0F1E08081816080830895E2E0F1E072
S11312D08081826080830895289A08951F93CF9314
S11312E0DF93C82F162FD42FD1DF82E08CD1812F2A
S11312F08AD18D2F88D18C2FDDDFDF91CF911F9183
S11313000895CF93DF93C82FD62FC0DF8D2F7BD1C5
S11313108C2FD0DFDF91CF9108950F931F93CF933C
S1131320DF93C82F062FD42F122FB0DF85E06BD1A7
S1131330802F69D1812F67D18D2F65D18C2FBADF92
S1131340DF91CF911F910F910895CF93C82F60EC37
S1131350D8DF20EE40E86FE08C2FDFDF44E06AE264
S11313608C2FBCDF4AEC69E28C2FB8DF41E068E2E5
S11313708C2FB4DF43E06BE28C2FB0DF41E06DE0F3
S11313808C2FACDF28EE48E06FE08C2FC6DFCF91C6
S113139008957F928F929F92AF92BF92CF92DF92E5
S11313A0EF92FF920F931F93CF93DF93CDB7DEB7E6
S11313B02D970FB6F894DEBF0FBECDBF782E4A012D
S11313C05901613728F40F2EF0E9FF2EF02D04C0E7
S11313D00F2EF4E9FF2EF02D872D58DF8F2D13D11A
S11313E0CE0101967C016E019EE0C90ED11C80E005
S11313F00AD1F70181937F01EC15FD05C1F72A811C
S1131400898190E0A0E0B0E0072E75E1880F991F74
S1131410AA1FBB1F7A95D1F7702D3B81932B3C817A
S1131420832B422F407E50E060E070E0032E3DE0CD
S1131430440F551F661F771F3A95D1F7302D842B23
S1131440952BA62BB72B2370A22BF80180839183B5
S1131450A283B3834D854F70F401408350E0BE01F5
S11314606B5F7F4FC5012AD2872D24DF2D960FB6DF
S1131470F894DEBF0FBECDBFDF91CF911F910F91C6
S1131480FF90EF90DF90CF90BF90AF909F908F90A0
S11314907F900895CF93DF93C82FD62FF7DE83E094
S11314A0B2D08D2FB0D080E0AED0D82F8C2F02DFF9
S11314B08D2FDF91CF910895CF93C82F60E3EADF9A
S11314C083FF0CC060E48C2FE5DF83FF09C060E577
S11314D08C2FE0DF83FF06C080E005C080E303C0FB
S11314E080E401C080E5CF9108958F929F92AF92DE
S11314F0BF92DF92EF92FF920F931F93CF93DF93EC
S1131500662309F463C047015801C32FE22ED42E89
S1131510F62ED82F43E0E2DEB501A401032E35E117
S113152076956795579547953A95D1F7302D81E093
S11315308F0D682F8D2FD2DEB501A401032E3DE05F
S113154076956795579547953A95D1F7302D407E16
S11315508A2D8370482B486062E06F0D8D2FBEDEAC
S113156077276B2D5A2D492D83E08F0D682F8D2FF2
S1131570B5DE64E06F0D482D8D2FB0DE65E06F0D94
S11315804D2D8D2FABDEDD2089F00E2D1C2FC6E0F6
S1131590CF0D46E04D0DE42EEF0CF80141918F0183
S11315A06C2F8D2F9BDECF5FCE11F7CF8F2D8595BE
S11315B0859585958595835061E070E002C0660F3E
S11315C0771F8A95E2F760688D2F9BDEDF91CF91BC
S11315D01F910F91FF90EF90DF90BF90AF909F907D
S11315E08F900895CF93DF93C82F50DE80EB0BD0FC
S11315F080E009D0D82F80E006D08C2F5BDE8D2FC1
S1131600DF91CF9108958EBD0DB407FEFDCF8EB549
S1131610089581E58CBD81E08DBD1EBC08951F92A7
S11316200F920FB60F9211240BB60F922F938F9334
S11316309F93EF93FF938091C0002091C60088711F
S1131640E091E709EF5FEF719091E609E91739F04E
S1131650E093E709F0E0E651F64F208301C082E011
S11316608093E509FF91EF919F918F912F910F90B6
S11316700BBE0F900FBE0F901F9018951F920F92E4
S11316800FB60F9211240BB60F922F938F939F9343
S1131690EF93FF938091C8002091CE008871E09170
S11316A0A209EF5FEF719091A109E91739F0E09376
S11316B0A209F0E0EB55F64F208301C082E080934D
S11316C0A009FF91EF919F918F912F910F900BBEE5
S11316D00F900FBE0F901F9018951F920F920FB688
S11316E00F9211240BB60F928F939F93EF93FF9356
S11316F09091E9098091E809981769F0E091E80967
S1131700EF5FEF71E093E809F0E0E65FF54F808169
S11317108093C60005C0E1ECF0E080818F7D80837A
S1131720FF91EF919F918F910F900BBE0F900FBE81
S11317300F901F9018951F920F920FB60F921124BD
S11317400BB60F928F939F93EF93FF939091A409FD
S11317508091A309981769F0E091A309EF5FEF71F5
S1131760E093A309F0E0EB53F64F80818093CE0021
S113177005C0E9ECF0E080818F7D8083FF91EF91DB
S11317809F918F910F900BBE0F900FBE0F901F90E3
S113179018951092E9091092E8091092E70910923D
S11317A0E609E1E6F0E080E8808310821092C5004B
S11317B087E68093C40082E08093C00088E1809330
S11317C0C10086E08093C200089590912A0A911185
S11317D015C02091E9092F5F2F719091E80929170D
S11317E0E1F3E22FF0E0E65FF54F80832093E9090F
S11317F0E1ECF0E080818062808308959130A1F46F
S11318002091A4092F5F2F719091A3092917E1F367
S1131810E22FF0E0EB53F64F80832093A409E9EC28
S1131820F0E080818062808308952091A4092F5F75
S11318302F719091A3092917E1F3E22FF0E0EB5304
S1131840F64F80832093A409E9ECF0E08081806264
S113185080830895CF93DF93EC018881882329F056
S11318602196E3DF89918111FCCFDF91CF91089517
S11318708091C000881F8827881F08958091C60022
S11318800895AA1BBB1B51E107C0AA1FBB1FA617C3
S1131890B70710F0A61BB70B881F991F5A95A9F715
S11318A080959095BC01CD010895EE0FFF1F002493
S11318B0001C0BBE0790F691E02D0994FB01DC019E
S11318C002C001900D9241505040D8F708950F93F3
S11318D01F93CF93DF93CDB7DEB72E970FB6F8944F
S11318E0DEBF0FBECDBF0D891E898F89988D26E07E
S11318F02C831A83098397FF02C080E090E8019744
S11319009E838D83AE01455E5F4F698D7A8DCE01D6
S1131910019619D04D815E8157FD0AC02F8138850B
S1131920421753070CF49A01F801E20FF31F1082D7
S11319302E960FB6F894DEBF0FBECDBFDF91CF91C8
S11319401F910F9108952F923F924F925F926F9241
S11319507F928F929F92AF92BF92CF92DF92EF923B
S1131960FF920F931F93CF93DF93CDB7DEB72B97DF
S11319700FB6F894DEBF0FBECDBF6C017B018A01A8
S1131980FC0117821682838181FFBFC1CE010196BB
S11319903C01F6019381F70193FD859193FF8191B9
S11319A07F01882309F4ADC1853239F493FD859113
S11319B093FF81917F01853221F4B60190E0D6D165
S11319C0E8CF912C212C312CFFE1F315D8F08B3288
S11319D079F038F4803279F08332A1F4232D206138
S11319E01DC08D3261F0803369F4232D216016C04F
S11319F0832D8260382EE32DE4603E2E2AC0F32D21
S1131A00F8601DC037FC2DC020ED280F2A3040F0AF
S1131A108E32B9F436FC75C1232D2064322E19C0E0
S1131A2036FE06C08AE0989E200D1124922E11C025
S1131A30EAE02E9E200D1124222EF32DF0623F2E7B
S1131A4008C08C3621F4832D8068382E02C0883675
S1131A5041F4F70193FD859193FF81917F018111F9
S1131A60B3CF982F9F7D9554933028F40C5F1F4F6C
S1131A709FE399830DC0833631F0833771F083354A
S1131A8009F055C020C0F801808189830E5F1F4F83
S1131A9088248394912C530112C02801F2E04F0E44
S1131AA0511CF801A080B18036FE03C0692D70E09E
S1131AB002C06FEF7FEFC5014ED14C018201F32DBF
S1131AC0FF773F2E15C0280122E0420E511CF80179
S1131AD0A080B18036FE03C0692D70E002C06FEFB4
S1131AE07FEFC5012DD14C01F32DF0683F2E82010B
S1131AF033FC19C0822D90E088169906A0F4B60133
S1131B0080E290E033D12A94F5CFF50137FC85913A
S1131B1037FE81915F01B60190E028D121102A940B
S1131B2021E0821A91088114910479F7E1C0843686
S1131B3011F0893639F5F80137FE07C060817181EB
S1131B40828193810C5F1F4F08C060817181072ED1
S1131B50000C880B990B0E5F1F4FF32DFF763F2E61
S1131B6097FF09C090958095709561957F4F8F4F31
S1131B709F4FF0683F2E2AE030E0A30133D1882E36
S1131B80861844C0853731F4232D2F7EB22E2AE0E7
S1131B9030E025C0932D997FB92E8F36C1F018F40B
S1131BA0883579F0AEC0803719F0883721F0A9C0A4
S1131BB0E92FE061BE2EB4FE0DC0FB2DF460BF2EF4
S1131BC009C034FE0AC0292F2660B22E06C028E0C0
S1131BD030E005C020E130E002C020E132E0F8014D
S1131BE0B7FE07C060817181828193810C5F1F4FB2
S1131BF006C06081718180E090E00E5F1F4FA301F9
S1131C00F1D0882E8618FB2DFF773F2E36FE0DC0AF
S1131C10232D2E7FA22E891458F434FE0BC032FCDF
S1131C2009C0832D8E7EA82E05C0B82CA32C03C01A
S1131C30B82C01C0B92CA4FE0FC0FE01E80DF11DA3
S1131C408081803321F49A2D997EA92E09C0A2FEA9
S1131C5006C0B394B39404C08A2D867809F0B39473
S1131C60A3FC10C0A0FE06C0B21480F4280C922C71
S1131C709B180DC0B21458F4B60180E290E076D0FF
S1131C80B394F8CFB21418F42B1802C0982C212C5A
S1131C90A4FE0FC0B60180E390E068D0A2FE16C097
S1131CA0A1FC03C088E790E002C088E590E0B6019B
S1131CB00CC08A2D867851F0A1FE02C08BE201C0CF
S1131CC080E2A7FC8DE2B60190E050D0891430F494
S1131CD0B60180E390E04AD09A94F8CF8A94F30155
S1131CE0E80DF11D8081B60190E040D08110F6CF5F
S1131CF0222009F44ECEB60180E290E037D02A9437
S1131D00F7CFF6018681978102C08FEF9FEF2B9664
S1131D100FB6F894DEBF0FBECDBFDF91CF911F91F8
S1131D200F91FF90EF90DF90CF90BF90AF909F9076
S1131D308F907F906F905F904F903F902F90089579
S1131D40FC010590615070400110D8F78095909582
S1131D508E0F9F1F0895FC01615070400190011087
S1131D60D8F7809590958E0F9F1F08950F931F931A
S1131D70CF93DF93FB01238121FD03C08FEF9FEFFE
S1131D802CC022FF16C04681578124813581421719
S1131D90530744F4A081B1819D012F5F3F4F3183EC
S1131DA020838C93268137812F5F3F4F378326838F
S1131DB014C08B01EC01FB010084F185E02D099531
S1131DC0892BE1F6D80116968D919C91179701966F
S1131DD017969C938E931697CE01DF91CF911F9106
S1131DE00F910895FA01AA27283051F1203181F189
S1131DF0E8946F936E7F6E5F7F4F8F4F9F4FAF4F0F
S1131E00B1E03ED0B4E03CD0670F781F891F9A1F21
S1131E10A11D680F791F8A1F911DA11D6A0F711DD5
S1131E20811D911DA11D20D009F468943F912AE0E1
S1131E30269F11243019305D3193DEF6CF010895C9
S1131E40462F4770405D4193B3E00FD0C9F7F6CFFA
S1131E50462F4F70405D4A3318F0495D31FD4052C2
S1131E60419302D0A9F7EACFB4E0A6959795879558
S1131E7077956795BA95C9F7009761057105089537
S1131E809B01AC010A2E06945795479537952795E3
S1131E90BA95C9F7620F731F841F951FA01D08957B
S1071EA0F894FFCFE0
S1131EA41E003A01F2014501F101C701AA01990298
S1131EB403002800050403040003000200010000D9
S1131EC4000A0A000028C8012573202573004572FE
S1131ED4726F7200494E464F004572726F72210050
S1131EE4215741524E494E4721004552524F520008
S1131EF423234552524F5223230043414E42555308
S1131F042031204E6F20526573706F6E73650043E9
S1131F14414E4255532031204E6F20526573706FE9
S1131F246E7365210043414E425553203120435280
S1131F3449544943414C204E4F20524553504F4E2F
S1131F4453450043414E4255532031204D616C6644
S1131F546F726D6564205061636B65740043414E18
S1131F644255532031204D616C666F726D65642057
S1131F745061636B6574210043414E4255532031D3
S1131F8420435249544943414C204D414C464F52FD
S1131F944D4544205041434B45540043414E425522
S1131FA4532032204E6F20526573706F6E73650038
S1131FB443414E4255532032204E6F205265737074
S1131FC46F6E7365210043414E42555320322043C2
S1131FD45249544943414C204E4F20524553504F8B
S1131FE44E53450043414E4255532032204D616CBB
S1131FF4666F726D6564205061636B657400434160
S11320044E4255532032204D616C666F726D656487
S1132014205061636B6574210043414E4255532043
S11320243220435249544943414C204D414C464F7C
S1132034524D4544205041434B45540043414E4284
S113204455532033204E6F20526573706F6E736541
S11320540043414E4255532033204E6F2052657342
S1132064706F6E7365210043414E425553203320F3
S1132074435249544943414C204E4F2052455350F6
S11320844F4E53450043414E4255532033204D6136
S11320946C666F726D6564205061636B6574004394
S11320A4414E4255532033204D616C666F726D6509
S11320B464205061636B6574210043414E4255535F
S11320C4203320435249544943414C204D414C460A
S11320D44F524D4544205041434B4554004765619C
S11320E472626F782025642054656D706572617422
S11320F4757265204E6F726D616C00476561726222
S11321046F782025642054656D70657261747572EE
S1132114652041626E6F726D616C6C79204C6F77CF
S1132124210047454152424F582025642054454DCF
S11321345045524154555245204352495449434110
S11321444C4C59204C4F570047656172626F78209C
S113215425642054656D70657261747572652041DF
S1132164626E6F726D616C6C7920486967682100D6
S113217447454152424F582025642054454D50450B
S113218452415455524520435249544943414C4CBD
S1132194592048494748005261646961746F722048
S11321A425642054656D7065726174757265204E82
S11321B46F726D616C005261646961746F72202581
S11321C4642054656D706572617475726520416232
S11321D46E6F726D616C6C79204C6F772100524183
S11321E4444941544F522025642054454D5045528E
S11321F4415455524520435249544943414C4C5946
S1132204204C4F57005261646961746F72202564D5
S11322142054656D70657261747572652041626ED7
S11322246F726D616C6C7920486967682100524152
S1132234444941544F522025642054454D5045523D
S1132244415455524520435249544943414C4C59F5
S11322542048494748004272616B65732025642015
S11322645072657373757265204E6F726D616C0084
S11322744272616B657320256420507265737375B3
S113228472652041626E6F726D616C6C79204C6F63
S11322947721004252414B45532025642050524536
S11322A4535355524520435249544943414C4C5984
S11322B4204C4F57004272616B6573202564205093
S11322C4726573737572652041626E6F726D616CB1
S11322D46C79204869676821004252414B45532078
S11322E42564205052455353555245204352495472
S11322F44943414C4C592048494748004272616B58
S11323046573202564205072657373757265205754
S113231461726E6E696E6721004252414B455320CF
S11323242564205052455353555245204352495431
S11323344943414C21004272616B6573202564203A
S1132344506F736974696F6E204E6F726D616C00A7
S11323544272616B657320256420506F73697469DC
S11323646F6E2041626E6F726D616C6C79204C6F7C
S11323747721004252414B455320256420504F534A
S11323844954494F4E20435249544943414C4C59B2
S1132394204C4F57004272616B65732025642050B2
S11323A46F736974696F6E205761726E696E672109
S11323B4004252414B455320256420504F53495405
S11323C4494F4E20435249544943414C0053746588
S11323D46572696E6720416E676C65204E6F726D1D
S11323E4616C005354454552494E4720414E474C75
S11323F445204F555453494445204C454654205098
S11324044152414D45544552005354454552494E59
S11324144720414E474C45204F5554534944452089
S1132424524947485420504152414D455445520065
S11324345468726F74746C652046756E6374696F46
S11324446E204E6F726D616C005448524F54544C5C
S11324544520435249544943414C204D414C46552F
S11324644E4354494F4E0043617220697320757082
S113247472696768740043415220484153204F569F
S113248445525455524E4544004261747465727900
S113249420256420436861726765204E6F726D6104
S11324A46C00426174746572792025642043686108
S11324B4726765204C6F7700424154544552592049
S11324C425642043484152474520435249544943D3
S11324D4414C00426174746572792025642054650A
S11324E46D7065726174757265204E6F726D616C86
S11324F400426174746572792025642054656D709A
S1132504657261747572652041626E6F726D616C7F
S11325146C79204C6F772100424154544552592020
S113252425642054454D5045524154555245204349
S11325345249544943414C4C59204C4F5700426131
S113254474746572792025642054656D70657261B4
S1132554747572652041626E6F726D616C6C792062
S113256448696768210042415454455259202564FE
S11325742054454D504552415455524520435249E7
S1132584544943414C4C5920484947480048656CD8
S10F25946C6F20576F726C64210A000009
S9030000FC
