S011000063635F6D65726765322E73726563AC
S1130000F6C000000C94BA080C9479080EC10000E4
S11300100CC100000AC1000008C1000006C10000B4
S113002004C100000C94FA0800C10000FEC00000E6
S1130030FCC00000FAC00000F8C00000F6C00000D8
S1130040F4C000000C946F08F0C00000EEC0000083
S1130050ECC000000C944808E8C00000E6C00000B2
S1130060E4C000000C94030B0C94610BDEC0000090
S1130070DCC00000DAC00000D8C00000D6C0000018
S1130080D4C00000D2C00000D0C00000CEC0000028
S11300900C94320B0C948F0BC8C00000C6C0000037
S11300A0C4C00000C2C00000C0C00000BEC0000048
S11300B0BCC00000BAC00000B8C00000B6C0000058
S11300C0B4C00000B2C00000B0C00000AEC0000068
S11300D0ACC00000AAC00000A8C00000A6C0000078
S11300E0A4C0000013027404D002EB02060321032F
S11300F03C03570372038D03A803C303DE03F00319
S113010002041404260441045B0474047404740497
S1130110740474047404740474047404740474041B
S1130120740474047404740474047404740474040B
S113013074047404740474047404740474047404FB
S113014074047404740474047404740474047404EB
S113015074047404740474047404740474047404DB
S113016074047404740474047404740474047404CB
S113017074047404740474047404740474047404BB
S113018074047404740474047404740474047404AB
S1130190740474047404740474047404740474049B
S11301A0740474047404740474047404740474048B
S11301B0740474047404740474047404740474047B
S11301C074042E02490274047404740474047404E0
S11301D074047404740464027F0274047404740464
S11301E0740474047404740474049A02B50211242B
S11301F01FBECFEFD1E2DEBFCDBF18E0A0E0B2E07A
S1130200ECE8FEE100E00BBF02C007900D92AA3FAC
S1130210B107D9F72AE0AAEFB8E001C01D92A932CC
S1130220B207E1F71BD60C94440FEACEEAE7F0E0FC
S11302308081806880830895EAE7F0E09081987F68
S113024090839081892B80830895ECE7F0E090817E
S11302509C7F9083208130E4839FC0011124822BF2
S113026080830895CF93C62F10927A00ECE7F0E0D4
S113027090819F7D9083E0DF8C2FE7DFD7DFCF91E4
S11302800895ECE7F0E09081907E9083883060F0F0
S1130290EBE7F0E0908198609083ECE7F0E09081E8
S11302A08850892B80830AC0EBE7F0E09081977F28
S11302B09083ECE7F0E09081892B8083EAE7F0E01B
S11302C0808180648083808186FDFDCF8091780069
S11302D0909179000895D5DF9695879596958795A1
S11302E008958F929F92AF92BF92CF92DF92EF9236
S11302F0FF920F931F93CF93DF93C82FD62F6A01DA
S1130300480159010E94500A8501740196014D2F3C
S1130310682F8C2F0E94690ADF91CF911F910F9152
S1130320FF90EF90DF90CF90BF90AF909F908F9011
S11303300895AF92BF92CF92DF92EF92FF920F9304
S11303401F93CF93C82F7B016A0159010E94E60ACB
S11303508295869586958370823061F0833089F02A
S11303608130D1F485019601A70161E68C2F0E94AA
S1130370BD0912C085019601A70161E78C2FFDD745
S11303800BC085019601A70161E68C2FF6D7960173
S1130390A70161E78C2FF1D7CF911F910F91FF90A7
S11303A0EF90DF90CF90BF90AF9008950F931F937D
S11303B0CF93DF93182F092F5F934F937F936F93FE
S11303C01F9288E28F93D0E0DF93C0E0CF930E9426
S11303D05B0CDF93CF930F931F9387E292E09F937D
S11303E08F931F9282E38F93CF93DF930E945B0CD2
S11303F062E370E08D2F9C2FB5D48DB79EB74296E3
S11304000FB6F8949EBF0FBE8DBFDF91CF911F91A1
S11304100F9108956538710508F066C2FB01EE5826
S1130420FF4F0C94490C8230910561F083309105A3
S113043079F0019709F058C26DE272E083E392E02B
S1130440B5CF089568E372E08FE392E0AFCF0895EB
S113045069E472E08FE492E0A9CF089582309105B7
S113046061F08330910579F0019709F03DC269E5A7
S113047072E083E392E09ACF08956EE672E08FE330
S113048092E094CF089564E872E08FE492E08ECF16
S113049008958230910561F08330910579F00197D8
S11304A009F022C262EA72E083E392E07FCF08950A
S11304B06CEB72E08FE392E079CF089567ED72E020
S11304C08FE492E073CF08958230910561F0833018
S11304D0910579F0019709F007C26AEF72E083E3AE
S11304E092E064CF08956FE073E08FE392E05ECF13
S11304F0089565E273E08FE492E058CF0895823066
S1130500910561F08330910579F0019709F0ECC110
S113051063E473E083E392E049CF08956DE573E00B
S11305208FE392E043CF089568E773E08FE492E0AD
S11305303DCF08958230910561F08330910579F0C3
S1130540019709F0D1C16BE973E083E392E02ECF08
S1130550089560EB73E08FE392E028CF089566EC92
S113056073E08FE492E022CF08958230910561F028
S11305708330910579F0019709F0B6C164EE73E018
S113058083E392E013CF08956EEF73E08FE392E07C
S11305900DCF089569E174E08FE492E007CF0895E8
S11305A08230910561F08330910579F0019709F06B
S11305B09BC16CE374E083E392E0F8CE08956AE5AE
S11305C074E08FE392E0F2CE089561E874E08FE482
S11305D092E0ECCE08958230910561F0833091056C
S11305E079F0019709F080C16CE374E083E392E051
S11305F0DDCE089567EA74E08FE392E0D7CE0895E4
S11306006FEC74E08FE492E0D1CE089582309105CE
S113061061F08330910579F0019709F065C166EFC7
S113062074E083E392E0C2CE089565E175E08FE360
S113063092E0BCCE08956DE375E08FE492E0B6CE0F
S113064008958230910561F08330910579F0019726
S113065009F04AC166EF74E083E392E0A7CE0895FF
S113066064E675E08FE392E0A1CE08956DE875E04D
S11306708FE492E09BCE08958230910561F083303F
S1130680910579F0019709F02FC165EB75E083E3DB
S113069092E08CCE08956FEC75E08FE392E086CE05
S11306A0089562EF75E08FE492E080CE0895823081
S11306B0910561F08330910579F0019709F014C137
S11306C065EB75E083E392E071CE089564E176E032
S11306D08FE392E06BCE089568E376E08FE492E0D6
S11306E065CE08958230910561F08330910579F0EB
S11306F0019709F0F9C065EB75E083E392E056CE0B
S113070008956BE576E08FE392E050CE089568E7B4
S113071076E08FE492E04ACE08958230910561F04C
S11307208330910579F0019709F0DEC065E976E040
S113073083E392E03BCE08956FEA76E08FE392E0A4
S113074035CE089562ED76E08FE492E02FCE0895E1
S11307508230910561F08330910579F0019709F0B9
S1130760C3C065EB75E083E392E020CE089564E1B5
S113077076E08FE392E01ACE089568E376E08FE4A2
S113078092E014CE08958230910561F08330910592
S113079079F0019709F0A8C065E976E083E392E077
S11307A005CE089564EF76E08FE392E0FFCD0895DF
S11307B060E177E08FE492E0F9CD0895813091050E
S11307C019F0039739F008956CE277E083E392E03F
S11307D0EDCD089562E477E08FE492E0E7CD0895EB
S11307E08130910519F0039739F008956CE277E0B0
S11307F083E392E0DBCD089568E677E08FE492E04E
S1130800D5CD08958130910519F0039739F00895F5
S11308106FE877E083E392E0C9CD089568EA77E072
S11308208FE492E0C3CD08958130910519F00397C8
S113083039F0089566EC77E083E392E0B7CD08954C
S113084065ED77E08FE492E0B1CD089582309105B3
S113085061F08330910579F0019709F045C068EEA5
S113086077E083E392E0A2CD089561E078E08FE33E
S113087092E09CCD089567E178E08FE492E096CD14
S113088008958230910559F08330910571F00197F4
S113089059F562E378E083E392E088CD089560E55A
S11308A078E08FE392E082CD089567E778E08FE403
S11308B092E07CCD08958230910559F08330910502
S11308C071F0019789F462E378E083E392E06ECDFE
S11308D008956DE978E08FE392E068CD089565ECC2
S11308E078E08FE492E062CD089540E050E092CD4C
S11308F00895E9E6F0E080818A60808383E08DBB1F
S113090081E08093680080E880936B00089582EC16
S11309108DB91EB887E08093010183E080930201C2
S113092087E684B981E085B998E190930A01109231
S11309300B0188EC8AB91AB888E087B918B8109204
S11309400401E5E0F1E080818064808391B980E175
S113095082B980E280930701CCCF0895D8DF4DD6C9
S113096080E09BE40AD761E086E07CDC81E0E1D4AE
S113097082E0DFD484E0DDD4E5E0F1E080818064CE
S11309808083089584B5826084BD85B5836085BD08
S11309908AEF87BDEEE6F0E080818260808310926A
S11309A080008DE08093810088E99AE39093890028
S11309B08093880082E080936F000895E091100294
S11309C0F09111029F01241B350BDC014D915C91C8
S11309D0420F531FA4E6A49FC001A59F900D1124AC
S11309E06E0F7F1F620F731F40D7862F653608F086
S11309F084E608950F931F93CF93DF93EC01009146
S1130A004B0910E085E090E03CDC000F111FF80179
S1130A10E95CF64F9183808310914B0981E0810F4B
S1130A2080934B0982E090E02CDCE12FF0E0EE0FA4
S1130A30FF1FED5DF64F9183808380914B098830D1
S1130A4010F010924B09E7E3F9E0A3E2B9E067E4A0
S1130A5079E080E090E020E030E041915191240F72
S1130A60351F4D915D91840F951FE617F707A9F780
S1130A703695279536952795369527953983288376
S1130A806091120270911302409106025091070284
S1130A90461B570B24173507D0F1969587959695E5
S1130AA08795969587954091020250910302461BC3
S1130AB0570B8417950768F1409108025091090279
S1130AC0461B570B4217530730F1409104025091D3
S1130AD00502461B570B48175907F8F0281B390B1A
S1130AE0C901992324F488279927821B930B209109
S1130AF04F09309150098217930788F02091000222
S1130B00309101022817390760F080E00BC081E0C2
S1130B1009C081E007C082E005C082E003C083E031
S1130B2001C083E0DF91CF911F910F910895EF925F
S1130B30FF921F93CF93DF9300D0CDB7DEB77C0134
S1130B401A821982CE01019655DF182F40910602B0
S1130B50509107026091080270910902CE0101963A
S1130B602DDFF7018083123051F0133071F0113012
S1130B7089F46EE070E082E090E0B7DE0BC06EE0D6
S1130B8070E082E090E0B1DE05C06EE070E082E0EB
S1130B9090E0ABDE812F0F900F90DF91CF911F91EA
S1130BA0FF90EF9008950F931F93CF93DF93EC0181
S1130BB00091220910E08AE090E063DB000F111F2E
S1130BC0F801E25FF64F918380831091220981E05E
S1130BD0810F8093220988E090E053DBE12FF0E05D
S1130BE0EE0FFF1FE650F74F918380838091220917
S1130BF0883010F010922209EEE0F9E0AAEFB8E094
S1130C006EE179E080E090E020E030E041915191A4
S1130C10240F351F4D915D91840F951FE617F7073B
S1130C20A9F7369527953695279536952795AC01DE
S1130C30569547955695479556954795B901641B22
S1130C40750BCB01992324F488279927861B970BCE
S1130C50FC01398328836091120270911302809100
S1130C600C0290910D02861B970B2817390758F038
S1130C7080910E0290910F02860F971F821793079F
S1130C8020F482E003C081E001C080E020910A02E8
S1130C9030910B02261B370B4217530710F4846064
S1130CA00AC020910E0230910F02620F731F641765
S1130CB0750708F4886020914F0930915009E217B4
S1130CC0F30738F020910002309101022E173F07FC
S1130CD008F48061DF91CF911F910F910895EF92F5
S1130CE0FF921F93CF93DF9300D0CDB7DEB77C0183
S1130CF01A821982CE01019656DF182F40910C02F8
S1130D0050910D0260910E0270910F02CE01019676
S1130D1055DEF7018083123051F0133071F0113039
S1130D2089F469E070E082E090E0DFDD0BC06AE006
S1130D3070E082E090E0D9DD05C06BE070E082E015
S1130D4090E0D3DD812F0F900F90DF91CF911F9111
S1130D50FF90EF900895E8E0F1E0908180E2892728
S1130D6080830895FF920F931F93CF93DF938C0199
S1130D70F62E84E41ED5FF2041F0E8010F0D111D6D
S1130D80899117D5C017D107D9F78DE012D58AE01C
S1130D9010D5DF91CF911F910F91FF900895CF93BC
S1130DA0DF9300D000D0CDB7DEB7809151098536EE
S1130DB020F48F5F8093510902C0109251098091F1
S1130DC09909982F990F80919809880F880F892B7A
S1130DD090919A09892B898380914D098A83809106
S1130DE04C098B8380914E098C8364E0CE0101967B
S1130DF0B9DF0F900F900F900F90DF91CF9108956E
S1130E00CF93DF93EC01888180938809C8DF18822F
S1130E10DF91CF910895843421F481E08093830994
S1130E200DC090918309913049F4E09182099E0F9D
S1130E3090938209F0E0EE5AF64F8083E0918209A4
S1130E40E93058F0F0E0EF5AF64F10821092820920
S1130E501092830982E599E0D3CF08957FDD92DD76
S1130E60109298092FEF89E698E121508040904034
S1130E70E1F700C000007894EFD4813011F4F2D48B
S1130E80CADF8CEE98E0DAD4F7CF0F931F93CF9399
S1130E90DF931F92CDB7DEB78091860990918709C1
S1130EA08536910534F401969093870980938609D9
S1130EB004C010928709109286098091030186FD6F
S1130EC01EC081E080939A0980919C0990919D09AC
S1130ED09C012F5F3F4F30939D0920939C09813DD6
S1130EE09740A8F080919B09811111C081E0809303
S1130EF09B099091990989278093990908C01092B8
S1130F009A0910929B0910929D0910929C09809154
S1130F104D098093900980918409909185090A97DD
S1130F2068F010928509109284090EE110E020E027
S1130F3034E240E959E068E081E0D3D980911D02B0
S1130F4090911E02C39720F010921E0210921D026F
S1130F5080911B0290911C02C397B8F010921C025E
S1130F6010921B0280919909813021F48FEF8093B4
S1130F70880902C01092880901E010E020E039E0FD
S1130F8048E859E068E082E0ACD980911902909178
S1130F901A028536910520F010921A021092190255
S1130FA08091170290911802C39720F010921802B2
S1130FB0109217028091840990918509019690936B
S1130FC085098093840980911D0290911E020196E7
S1130FD090931E0280931D0280911B0290911C022B
S1130FE0019690931C0280931B02809119029091A8
S1130FF01A02019690931A028093190280911702A3
S11310009091180201969093180280931702809190
S113101016028B3050F0CE01019689DD811103C098
S1131020898180934D0910921602809115028B30AC
S113103050F0CE01019653DE811103C08981809363
S11310404C0910921502809114028B3030F084E028
S113105042D980934E0910921402809116028F5F38
S113106080931602809115028F5F80931502809100
S113107014028F5F8093140280914D09809390092C
S1131080809320020F90DF91CF911F910F910895CB
S11310901F920F920FB60F9211240BB60F922F933B
S11310A03F934F935F936F937F938F939F93AF93EC
S11310B0BF93EF93FF93E9DEFF91EF91BF91AF915F
S11310C09F918F917F916F915F914F913F912F915C
S11310D00F900BBE0F900FBE0F901F9018951F928C
S11310E00F920FB60F9211240F900FBE0F901F9006
S11310F018951F920F920FB60F9211240BB60F92F0
S11311002F933F934F935F936F937F938F939F930B
S1131110AF93BF93EF93FF93CF93DF93CDB7DEB736
S11311202D97DEBFCDBF17DE9E01275F3F4FAE0177
S11311304F5F5F4FBE01635F7F4F81E0FAD82D960A
S11311400FB6F894DEBF0FBECDBFDF91CF91FF91F4
S1131150EF91BF91AF919F918F917F916F915F912B
S11311604F913F912F910F900BBE0F900FBE0F9098
S11311701F9018951F920F920FB60F9211240BB661
S11311800F922F933F934F935F936F937F938F931C
S11311909F93AF93BF93EF93FF93CF93DF93CDB719
S11311A0DEB72D97DEBFCDBF9E01275F3F4FAE0157
S11311B04F5F5F4FBE01635F7F4F82E0BAD82D96C9
S11311C00FB6F894DEBF0FBECDBFDF91CF91FF9174
S11311D0EF91BF91AF919F918F917F916F915F91AB
S11311E04F913F912F910F900BBE0F900FBE0F9018
S11311F01F9018951F920F920FB60F9211240BB6E1
S11312000F922F933F934F935F936F937F938F939B
S11312109F93AF93BF93EF93FF93CF93DF93CDB798
S1131220DEB72D97DEBFCDBF9E01275F3F4FAE01D6
S11312304F5F5F4FBE01635F7F4F84E07AD82D9686
S11312400FB6F894DEBF0FBECDBFDF91CF91FF91F3
S1131250EF91BF91AF919F918F917F916F915F912A
S11312604F913F912F910F900BBE0F900FBE0F9097
S11312701F901895823051F0843071F0813069F4F8
S1131280E2E0F1E080818E7F80830895E2E0F1E086
S113129080818D7F8083089528980895823051F04D
S11312A0843071F0813069F4E2E0F1E080818160A2
S11312B080830895E2E0F1E0808182608083089574
S11312C0289A08951F93CF93DF93C82F162FD42FF6
S11312D0D1DF82E08CD1812F8AD18D2F88D18C2FC0
S11312E0DDDFDF91CF911F910895CF93DF93C82F56
S11312F0D62FC0DF8D2F7BD18C2FD0DFDF91CF9104
S113130008950F931F93CF93DF93C82F062FD42FE5
S1131310122FB0DF85E06BD1802F69D1812F67D187
S11313208D2F65D18C2FBADFDF91CF911F910F9153
S11313300895CF93C82F60ECD8DF20EE40E86FE02B
S11313408C2FDFDF44E06AE28C2FBCDF4AEC69E2D9
S11313508C2FB8DF41E068E28C2FB4DF43E06BE20E
S11313608C2FB0DF41E06DE08C2FACDF28EE48E03D
S11313706FE08C2FC6DFCF9108957F928F929F925A
S1131380AF92BF92CF92DF92EF92FF920F931F938F
S1131390CF93DF93CDB7DEB72D970FB6F894DEBFAA
S11313A00FBECDBF782E4A015901613728F40F2EA4
S11313B0F0E9FF2EF02D04C00F2EF4E9FF2EF02DDE
S11313C0872D58DF8F2D13D1CE0101967C016E013C
S11313D09EE0C90ED11C80E00AD1F70181937F0100
S11313E0EC15FD05C1F72A81898190E0A0E0B0E009
S11313F0072E75E1880F991FAA1FBB1F7A95D1F795
S1131400702D3B81932B3C81832B422F407E50E0F7
S113141060E070E0032E3DE0440F551F661F771F08
S11314203A95D1F7302D842B952BA62BB72B23700F
S1131430A22BF80180839183A283B3834D854F70DF
S1131440F401408350E0BE016B5F7F4FC5012AD297
S1131450872D24DF2D960FB6F894DEBF0FBECDBFC7
S1131460DF91CF911F910F91FF90EF90DF90CF907C
S1131470BF90AF909F908F907F900895CF93DF930C
S1131480C82FD62FF7DE83E0B2D08D2FB0D080E006
S1131490AED0D82F8C2F02DF8D2FDF91CF910895FE
S11314A0CF93C82F60E3EADF83FF0CC060E48C2F86
S11314B0E5DF83FF09C060E58C2FE0DF83FF06C012
S11314C080E005C080E303C080E401C080E5CF91E3
S11314D008958F929F92AF92BF92DF92EF92FF9204
S11314E00F931F93CF93DF93662309F463C04701DF
S11314F05801C32FE22ED42EF62ED82F43E0E2DE7D
S1131500B501A401032E35E1769567955795479566
S11315103A95D1F7302D81E08F0D682F8D2FD2DED3
S1131520B501A401032E3DE076956795579547953F
S11315303A95D1F7302D407E8A2D8370482B486030
S113154062E06F0D8D2FBEDE77276B2D5A2D492D4E
S113155083E08F0D682F8D2FB5DE64E06F0D482D6D
S11315608D2FB0DE65E06F0D4D2D8D2FABDEDD20B0
S113157089F00E2D1C2FC6E0CF0D46E04D0DE42E54
S1131580EF0CF80141918F016C2F8D2F9BDECF5F03
S1131590CE11F7CF8F2D85958595859585958350AB
S11315A061E070E002C0660F771F8A95E2F7606819
S11315B08D2F9BDEDF91CF911F910F91FF90EF90C4
S11315C0DF90BF90AF909F908F900895CF93DF935B
S11315D0C82F50DE80EB0BD080E009D0D82F80E0FC
S11315E006D08C2F5BDE8D2FDF91CF9108958EBDB9
S11315F00DB407FEFDCF8EB5089581E58CBD81E065
S11316008DBD1EBC08951F920F920FB60F92112428
S11316100BB60F922F938F939F93EF93FF93809129
S1131620C0002091C6008871E091E509EF5FEF7179
S11316309091E409E91739F0E093E509F0E0E85105
S1131640F64F208301C082E08093E309FF91EF917C
S11316509F918F912F910F900BBE0F900FBE0F9003
S11316601F9018951F920F920FB60F9211240BB66C
S11316700F922F938F939F93EF93FF938091C800C2
S11316802091CE008871E091A009EF5FEF719091F5
S11316909F09E91739F0E093A009F0E0ED55F64F02
S11316A0208301C082E080939E09FF91EF919F9176
S11316B08F912F910F900BBE0F900FBE0F901F9024
S11316C018951F920F920FB60F9211240BB60F921A
S11316D08F939F93EF93FF939091E7098091E6098D
S11316E0981769F0E091E609EF5FEF71E093E6097E
S11316F0F0E0E85FF54F80818093C60005C0E1EC1F
S1131700F0E080818F7D8083FF91EF919F918F9195
S11317100F900BBE0F900FBE0F901F9018951F9245
S11317200F920FB60F9211240BB60F928F939F93C3
S1131730EF93FF939091A2098091A109981769F002
S1131740E091A109EF5FEF71E093A109F0E0ED539F
S1131750F64F80818093CE0005C0E9ECF0E08081F3
S11317608F7D8083FF91EF919F918F910F900BBE9E
S11317700F900FBE0F901F9018951092E7091092CA
S1131780E6091092E5091092E409E1E6F0E080E848
S1131790808310821092C50087E68093C40082E0A3
S11317A08093C00088E18093C10086E08093C200EA
S11317B008959091280A911115C02091E7092F5F8F
S11317C02F719091E6092917E1F3E22FF0E0E85F29
S11317D0F54F80832093E709E1ECF0E0808180629B
S11317E0808308959130A1F42091A2092F5F2F7175
S11317F09091A1092917E1F3E22FF0E0ED53F64FA0
S113180080832093A209E9ECF0E0808180628083E8
S113181008952091A2092F5F2F719091A109291792
S1131820E1F3E22FF0E0ED53F64F80832093A20919
S1131830E9ECF0E08081806280830895CF93DF93A8
S1131840EC018881882329F02196E3DF89918111B5
S1131850FCCFDF91CF9108958091C000881F882725
S1131860881F08958091C6000895AA1BBB1B51E1EF
S113187007C0AA1FBB1FA617B70710F0A61BB70BFC
S1131880881F991F5A95A9F780959095BC01CD01A1
S11318900895EE0FFF1F0024001C0BBE0790F69165
S11318A0E02D0994FB01DC0102C001900D9241502E
S11318B05040D8F708950F931F93CF93DF93CDB77C
S11318C0DEB72E970FB6F894DEBF0FBECDBF0D89DD
S11318D01E898F89988D26E02C831A83098397FFAC
S11318E002C080E090E801979E838D83AE01455E3F
S11318F05F4F698D7A8DCE01019619D04D815E813D
S113190057FD0AC02F813885421753070CF49A01FA
S1131910F801E20FF31F10822E960FB6F894DEBF83
S11319200FBECDBFDF91CF911F910F9108952F92DC
S11319303F924F925F926F927F928F929F92AF925B
S1131940BF92CF92DF92EF92FF920F931F93CF93A8
S1131950DF93CDB7DEB72B970FB6F894DEBF0FBE7B
S1131960CDBF6C017B018A01FC0117821682838141
S113197081FFBFC1CE0101963C01F6019381F701BD
S113198093FD859193FF81917F01882309F4ADC173
S1131990853239F493FD859193FF81917F018532DE
S11319A021F4B60190E0D6D1E8CF912C212C312C32
S11319B0FFE1F315D8F08B3279F038F4803279F006
S11319C08332A1F4232D20611DC08D3261F0803358
S11319D069F4232D216016C0832D8260382EE32DF7
S11319E0E4603E2E2AC0F32DF8601DC037FC2DC0E4
S11319F020ED280F2A3040F08E32B9F436FC75C140
S1131A00232D2064322E19C036FE06C08AE0989E2B
S1131A10200D1124922E11C0EAE02E9E200D1124D7
S1131A20222EF32DF0623F2E08C08C3621F4832D34
S1131A308068382E02C0883641F4F70193FD859101
S1131A4093FF81917F018111B3CF982F9F7D95548E
S1131A50933028F40C5F1F4F9FE399830DC08336A6
S1131A6031F0833771F0833509F055C020C0F80197
S1131A70808189830E5F1F4F88248394912C5301A6
S1131A8012C02801F2E04F0E511CF801A080B18071
S1131A9036FE03C0692D70E002C06FEF7FEFC50111
S1131AA04ED14C018201F32DFF773F2E15C0280142
S1131AB022E0420E511CF801A080B18036FE03C022
S1131AC0692D70E002C06FEF7FEFC5012DD14C018D
S1131AD0F32DF0683F2E820133FC19C0822D90E073
S1131AE088169906A0F4B60180E290E033D12A94D6
S1131AF0F5CFF50137FC859137FE81915F01B60181
S1131B0090E028D121102A9421E0821A91088114AE
S1131B10910479F7E1C0843611F0893639F5F8017A
S1131B2037FE07C060817181828193810C5F1F4FF2
S1131B3008C060817181072E000C880B990B0E5F21
S1131B401F4FF32DFF763F2E97FF09C09095809588
S1131B50709561957F4F8F4F9F4FF0683F2E2AE01D
S1131B6030E0A30133D1882E861844C0853731F480
S1131B70232D2F7EB22E2AE030E025C0932D997FAD
S1131B80B92E8F36C1F018F4883579F0AEC080379D
S1131B9019F0883721F0A9C0E92FE061BE2EB4FE08
S1131BA00DC0FB2DF460BF2E09C034FE0AC0292FDE
S1131BB02660B22E06C028E030E005C020E130E007
S1131BC002C020E132E0F801B7FE07C060817181F4
S1131BD0828193810C5F1F4F06C06081718180E018
S1131BE090E00E5F1F4FA301F1D0882E8618FB2DC5
S1131BF0FF773F2E36FE0DC0232D2E7FA22E891493
S1131C0058F434FE0BC032FC09C0832D8E7EA82EFE
S1131C1005C0B82CA32C03C0B82C01C0B92CA4FE59
S1131C200FC0FE01E80DF11D8081803321F49A2D4F
S1131C30997EA92E09C0A2FE06C0B394B39404C031
S1131C408A2D867809F0B394A3FC10C0A0FE06C0C8
S1131C50B21480F4280C922C9B180DC0B21458F4C2
S1131C60B60180E290E076D0B394F8CFB21418F4C1
S1131C702B1802C0982C212CA4FE0FC0B60180E3BF
S1131C8090E068D0A2FE16C0A1FC03C088E790E0F3
S1131C9002C088E590E0B6010CC08A2D867851F028
S1131CA0A1FE02C08BE201C080E2A7FC8DE2B60176
S1131CB090E050D0891430F4B60180E390E04AD02B
S1131CC09A94F8CF8A94F301E80DF11D8081B6014E
S1131CD090E040D08110F6CF222009F44ECEB60118
S1131CE080E290E037D02A94F7CFF601868197817D
S1131CF002C08FEF9FEF2B960FB6F894DEBF0FBE96
S1131D00CDBFDF91CF911F910F91FF90EF90DF90A6
S1131D10CF90BF90AF909F908F907F906F905F9087
S1131D204F903F902F900895FC01059061507040B2
S1131D300110D8F7809590958E0F9F1F0895FC0190
S1131D406150704001900110D8F7809590958E0FE6
S1131D509F1F08950F931F93CF93DF93FB0123815C
S1131D6021FD03C08FEF9FEF2CC022FF16C04681D8
S1131D705781248135814217530744F4A081B181EE
S1131D809D012F5F3F4F318320838C9326813781C0
S1131D902F5F3F4F3783268314C08B01EC01FB0177
S1131DA00084F185E02D0995892BE1F6D80116967A
S1131DB08D919C911797019617969C938E931697E5
S1131DC0CE01DF91CF911F910F910895FA01AA27B7
S1131DD0283051F1203181F1E8946F936E7F6E5F6A
S1131DE07F4F8F4F9F4FAF4FB1E03ED0B4E03CD018
S1131DF0670F781F891F9A1FA11D680F791F8A1FFB
S1131E00911DA11D6A0F711D811D911DA11D20D061
S1131E1009F468943F912AE0269F11243019305D1B
S1131E203193DEF6CF010895462F4770405D41930C
S1131E30B3E00FD0C9F7F6CF462F4F70405D4A3359
S1131E4018F0495D31FD4052419302D0A9F7EACF21
S1131E50B4E0A6959795879577956795BA95C9F750
S1131E6000976105710508959B01AC010A2E069443
S1131E705795479537952795BA95C9F7620F731FFC
S10F1E80841F951FA01D0895F894FFCF47
S1131E8C1E003A01F2014501F101C701AA019902B0
S1131E9C03002800050403040003000200010000F1
S1131EAC000A0A000028C8257320257300457272A5
S1131EBC6F7200494E464F004572726F72210021B9
S1131ECC5741524E494E4721004552524F5200231E
S1131EDC234552524F5223230043414E4255532023
S1131EEC31204E6F20526573706F6E7365004341E1
S1131EFC4E4255532031204E6F20526573706F6ED5
S1131F0C7365210043414E425553203120435249BD
S1131F1C544943414C204E4F20524553504F4E533D
S1131F2C450043414E4255532031204D616C666F40
S1131F3C726D6564205061636B65740043414E425D
S1131F4C55532031204D616C666F726D6564205061
S1131F5C61636B6574210043414E4255532031201B
S1131F6C435249544943414C204D414C464F524DE8
S1131F7C4544205041434B45540043414E42555334
S1131F8C2032204E6F20526573706F6E7365004360
S1131F9C414E4255532032204E6F20526573706F60
S1131FAC6E7365210043414E4255532032204352F7
S1131FBC49544943414C204E4F20524553504F4EA7
S1131FCC53450043414E4255532032204D616C66BB
S1131FDC6F726D6564205061636B65740043414E90
S1131FEC4255532032204D616C666F726D656420CE
S1131FFC5061636B6574210043414E42555320324A
S113200C20435249544943414C204D414C464F5274
S113201C4D4544205041434B45540043414E425599
S113202C532033204E6F20526573706F6E736500AE
S113203C43414E4255532033204E6F2052657370EA
S113204C6F6E7365210043414E4255532033204338
S113205C5249544943414C204E4F20524553504F02
S113206C4E53450043414E4255532033204D616C31
S113207C666F726D6564205061636B6574004341D7
S113208C4E4255532033204D616C666F726D6564FE
S113209C205061636B6574210043414E42555320BB
S11320AC3320435249544943414C204D414C464FF3
S11320BC524D4544205041434B4554004765617291
S11320CC626F782025642054656D70657261747537
S11320DC7265204E6F726D616C0047656172626F40
S11320EC782025642054656D706572617475726511
S11320FC2041626E6F726D616C6C79204C6F77212C
S113210C0047454152424F582025642054454D50B8
S113211C4552415455524520435249544943414C2C
S113212C4C59204C4F570047656172626F782025DB
S113213C642054656D7065726174757265204162BA
S113214C6E6F726D616C6C79204869676821004709
S113215C454152424F582025642054454D50455218
S113216C415455524520435249544943414C4C59CE
S113217C2048494748005261646961746F72202594
S113218C642054656D7065726174757265204E6F50
S113219C726D616C005261646961746F72202564A4
S11321AC2054656D70657261747572652041626E40
S11321BC6F726D616C6C79204C6F772100524144C5
S11321CC4941544F522025642054454D50455241A9
S11321DC5455524520435249544943414C4C59207F
S11321EC4C4F57005261646961746F7220256420EE
S11321FC54656D70657261747572652041626E6FA1
S113220C726D616C6C792048696768210052414495
S113221C4941544F522025642054454D5045524158
S113222C5455524520435249544943414C4C59202E
S113223C48494748004272616B65732025642050FD
S113224C72657373757265204E6F726D616C0042AA
S113225C72616B657320256420507265737375729B
S113226C652041626E6F726D616C6C79204C6F7776
S113227C21004252414B4553202564205052455372
S113228C5355524520435249544943414C4C5920CF
S113229C4C4F57004272616B657320256420507259
S11322AC6573737572652041626E6F726D616C6CCF
S11322BC79204869676821004252414B45532025D7
S11322CC6420505245535355524520435249544966
S11322DC43414C4C592048494748004272616B6554
S11322EC7320256420507265737375726520576171
S11322FC726E6E696E6721004252414B4553202524
S113230C6420505245535355524520435249544925
S113231C43414C21004272616B657320256420504B
S113232C6F736974696F6E204E6F726D616C0042CD
S113233C72616B657320256420506F736974696FC7
S113234C6E2041626E6F726D616C6C79204C6F778C
S113235C21004252414B455320256420504F534990
S113236C54494F4E20435249544943414C4C5920F3
S113237C4C4F57004272616B657320256420506F7B
S113238C736974696F6E205761726E696E67210090
S113239C4252414B455320256420504F53495449D4
S11323AC4F4E20435249544943414C005374656584
S11323BC72696E6720416E676C65204E6F726D6139
S11323CC6C005354454552494E4720414E474C45A9
S11323DC204F555453494445204C454654205041B4
S11323EC52414D45544552005354454552494E476C
S11323FC20414E474C45204F555453494445205297
S113240C4947485420504152414D4554455200547B
S113241C68726F74746C652046756E6374696F6E44
S113242C204E6F726D616C005448524F54544C459D
S113243C20435249544943414C204D414C46554E3E
S113244C4354494F4E004361722069732075707276
S113245C696768740043415220484153204F5645E4
S113246C525455524E45440042617474657279203D
S113247C256420436861726765204E6F726D616CD0
S113248C004261747465727920256420436861721A
S113249C6765204C6F7700424154544552592025AE
S11324AC64204348415247452043524954494341CF
S11324BC4C00426174746572792025642054656DF6
S11324CC7065726174757265204E6F726D616C000B
S11324DC426174746572792025642054656D70654D
S11324EC7261747572652041626E6F726D616C6C91
S11324FC79204C6F77210042415454455259202580
S113250C642054454D504552415455524520435234
S113251C49544943414C4C59204C4F570042617427
S113252C746572792025642054656D7065726174CC
S113253C7572652041626E6F726D616C6C792048A6
S113254C696768210042415454455259202564203E
S113255C54454D50455241545552452043524954CB
S113256C4943414C4C5920484947480048656C6CD8
S10D257C6F20576F726C64210A008F
S9030000FC
