S0160000696E766572746572436F646556322E737265639C
S11300000C943E000C9450000C9450000C9450003E
S11300100C9450000C9450000C9450000C94080262
S11300200C942E020C944E020C9450000C9450002C
S11300300C9450000C9450000C9450000C945000FC
S11300400C9450000C9450000C94A9010C94500092
S11300500C9450000C9450000C9450000C945000DC
S11300600C9450000C9450000C9450000C945000CC
S11300700C9450000C9450000C94500011241FBE9A
S1130080CFEFD0E1DEBFCDBF21E0A0E0B1E001C001
S11300901D92A031B207E1F70E94B3020C946C05E3
S11300A00C940000AAE7B0E01C92ECE7F0E0808139
S11300B08F7D80838081806C808380E280937B004D
S11300C08C9187688C930895ECE7F0E09081907EA2
S11300D08F71892B8083EAE7F0E0808180648083DC
S11300E0808184FFFDCF8091780020917900EAE738
S11300F0F0E0908190619083237090E0922B0895BA
S1130100EF92FF920F931F93CF93DF9381E080933D
S1130110D80080E00DEE10E06FEE70E04EEE50E09F
S113012027EF30E0C6EFD0E0A5EFB0E00F2EF4EFFC
S1130130EF2EF12CF02D982F9295907FF80190835B
S1130140FB011082FA011082F901108218821C92BC
S1130150F70110828F5F863071F78EE08093E200A2
S113016084E08093E30083E18093E40080E2809361
S1130170DE0080EA8093DB0082E08093D800FFEF0A
S113018020E782E0F15020408040E1F700C0000009
S11301908091D90082FB882780F991E08927DF913B
S11301A0CF911F910F91FF90EF900895CF92DF921E
S11301B0EF92FF920F931F938295807F8093ED00BF
S11301C01092F4001092F500822F8295880F807EA1
S11301D08093F600DA01C901689412F8B695A795E0
S11301E0979587951694D1F78093F7001092F000B5
S11301F01092F1008E2D8295880F807E8093F200FC
S1130200D801C701689412F8B695A7959795879574
S11302101694D1F78093F30080E1C89E6001112405
S11302206068C62AC092EF001F910F91FF90EF9073
S1130230DF90CF900895EF920F931F938295807F64
S11302408093ED00EEEEF0E080818F7B808310924E
S1130250F400802F880F880F880F8093F000D90155
S1130260C801689414F8B695A79597958795169440
S1130270D1F78093F100D901C801072E7DE0B6952E
S1130280A795979587957A95D1F7702D8093F2006D
S11302900F2EF5E13695279517950795FA95D1F721
S11302A0F02D0093F300662371F0FA018FEF860FAF
S11302B090E00196480F591FAAEFB0E081918C930A
S11302C0E417F507D9F760656093EF00EE20A1F01D
S11302D08091EE0086FD10C080E0EEEEF0E003C0F9
S11302E0908196FD09C0AFE9BFE01197F1F700C016
S11302F000008F5FE812F4CF1F910F91EF900895E3
S1130300CF93DF931092ED008091EE0086FD16C02E
S11303108091EF0086FF14C081E0ADEEB0E0EEEE18
S1130320F0E0CFEED0E0982F9295907F9C9390814F
S113033096FD0CC0988196FD05C008C080E006C0FB
S113034080E004C08F5F843071F78FEFDF91CF912D
S113035008951F920F920FB60F921124CF92EF922D
S1130360FF920F931F932F933F934F935F936F933A
S11303707F938F939F93AF93BF93EF93FF9380915A
S1130380E00085FF1DC080E58093ED00EAEFF0E01A
S1130390808180930F018081808180818081808130
S11303A080818081CC24C394E12CF12C00E014E002
S11303B020E030E040E054E068E085E00E94D600B0
S11303C0FF91EF91BF91AF919F918F917F916F9129
S11303D05F914F913F912F911F910F91FF90EF905B
S11303E0CF900F900FBE0F901F9018958AE00E9437
S11303F0640020E03AE0AC01429FC001439F900DAD
S1130400529F900D1124892F8695869590E008952A
S11304101F920F920FB60F9211248F939F9395B151
S113042088E0892785B910920E0110920D0110926F
S1130430B6005898409828984E9B05C0409A80E38F
S11304408093B60004C08CE08093B600289A9F91F4
S11304508F910F900FBE0F901F9018951F920F92BF
S11304600FB60F9211248F9310920E0110920D016A
S11304701092B6005898409828981A9B05C083E0BB
S11304808093B600289A04C080E38093B600589AFB
S11304908F910F900FBE0F901F9018951F920F927F
S11304A00FB60F9211248F9310920E0110920D012A
S11304B01092B6005898409828981D9B05C08CE06F
S11304C08093B600589A04C0409A83E08093B600A3
S11304D08F910F900FBE0F901F90189523B193B179
S11304E089B1207230E0A9015595479555954795F6
S11304F0559547959470292F30E035952795240F0D
S113050086FB882780F9820F08950E946E0283304B
S1130510B1F028F4813049F0823061F008958530DB
S1130520C1F090F08630D1F0089583E08093B60056
S1130530409A0895289A8CE08093B6000895289AEA
S113054083E08093B600089580E38093B600589AC0
S1130550089580E38093B600409A0895589A8CE0F9
S11305608093B600089584B18B6C84B987B1856893
S113057087B98AB181688AB985B1847385B940988D
S1130580589885B1846285B95E9A82E089BD85E117
S11305908093690087E08DBB80E091E09093B30085
S11305A08093B2008CED90E09093AD008093AC000A
S11305B09093A7008093A6009093A1008093A0003D
S11305C082ED90E09093B1008093B0009093AB00E3
S11305D08093AA009093A5008093A4008CE180935B
S11305E0B50081E28093B7000E9452000E9480000F
S11305F0CC24C394E12CF12C00E014E020E030E0A2
S113060040E054E068E085E00E94D60078941092BF
S1130610B600589840982898C6EBD0E00F2EFCEA14
S11306206F2E712CF02D0F2EF6EA8F2E912CF02DBB
S11306300F2EF0EAAF2EB12CF02D0F2EF0EB4F2E33
S1130640512CF02D0F2EFAEA2F2E312CF02D0F2ED7
S1130650F3E0CF2EF1E0DF2EF02D0F2EF4E1EF2E9C
S1130660F02D04EA10E0FF24F39460910F0170E090
S113067080E090E00E9473042DEC3CEC4CE050E4EC
S11306800E94FF049B01AC0160E070E08AE793E400
S11306900E94D5030E94420460930C0180910C01D6
S11306A0843110F4E0920C0180910B018130D1F47B
S11306B080910C0190E0F30191838083F401918394
S11306C08083F5019183808380910C0190E00A97E7
S11306D0F20191838083F10191838083F8019183F6
S11306E0808304C0188258984098289880910D01FE
S11306F090910E01883E934048F480910D019091B1
S11307000E01019690930E0180930D0180910D01CD
S113071090910E01883E934020F010920B012B988B
S113072003C0F0920B012B9A80910B0181110CC034
S113073080910C01863940F40E948502F0920B01ED
S113074010920E0110920D0180910101909102010D
S1130750019690930201809301018536910508F476
S113076084CF10920201109201010E94F601F60159
S11307709083818381E08283809100018383E8ED0B
S1130780F0E080818F7780830E948001E12C00E07B
S113079010E020E034E0A60164E00E941B01809197
S11307A000018F5F8093000158CF5058BB27AA27C0
S11307B00E94ED030C94C5040E94B70438F00E9413
S11307C0BE0420F039F49F3F19F426F40C94B404C9
S11307D00EF4E095E7FB0C94AE04E92F0E94D604D6
S11307E058F3BA17620773078407950720F079F462
S11307F0A6F50C94F8040EF4E0950B2EBA2FA02D58
S11308000B01B90190010C01CA01A0011124FF27B9
S1130810591B99F0593F50F4503E68F11A16F040B4
S1130820A22F232F342F4427585FF3CF46953795B3
S11308302795A795F0405395C9F77EF41F16BA0B78
S1130840620B730B840BBAF09150A1F0FF0FBB1F26
S1130850661F771F881FC2F70EC0BA0F621F731F6F
S1130860841F48F4879577956795B795F7959E3FCC
S113087008F0B0CF9395880F08F09927EE0F97955D
S1130880879508950E94DE0488F09F5798F0B92F49
S11308909927B751B0F0E1F0660F771F881F991FB1
S11308A01AF0BA95C9F714C0B13091F00E94F80457
S11308B0B1E008950C94F804672F782F8827B85F67
S11308C039F0B93FCCF3869577956795B395D9F709
S11308D03EF490958095709561957F4F8F4F9F4F13
S11308E00895E89409C097FB3EF49095809570951F
S11308F061957F4F8F4F9F4F9923A9F0F92F96E968
S1130900BB279395F695879577956795B795F111DC
S1130910F8CFFAF4BB0F11F460FF1BC06F5F7F4F79
S11309208F4F9F4F16C0882311F096E911C077238B
S113093021F09EE8872F762F05C0662371F096E894
S1130940862F70E060E02AF09A95660F771F881F63
S1130950DAF7880F9695879597F9089597F99F6721
S113096080E870E060E008959FEF80EC0895002433
S11309700A941616170618060906089500240A9400
S113098012161306140605060895092E0394000C86
S113099011F4882352F0BB0F40F4BF2B11F460FF15
S11309A004C06F5F7F4F8F4F9F4F089557FD90583E
S11309B0440F551F59F05F3F71F04795880F97FB1F
S11309C0991F61F09F3F79F08795089512161306D9
S11309D01406551FF2CF4695F1DF08C01616170608
S11309E01806991FF1CF869571056105089408953D
S11309F0E894BB2766277727CB0197F908950E94CF
S1130A0012050C94C5040E94B70438F00E94BE0479
S1130A1020F0952311F00C94AE040C94B40411242A
S1130A200C94F9040E94D60470F3959FC1F3950FBA
S1130A3050E0551F629FF001729FBB27F00DB11D5E
S1130A40639FAA27F00DB11DAA1F649F6627B00DEE
S1130A50A11D661F829F2227B00DA11D621F739FD7
S1130A60B00DA11D621F839FA00D611D221F749FE5
S1130A703327A00D611D231F849F600D211D822F2C
S1130A80762F6A2F11249F5750409AF0F1F0882353
S1130A904AF0EE0FFF1FBB1F661F771F881F915080
S1130AA05040A9F79E3F510580F00C94AE040C947D
S1130AB0F9045F3FE4F3983ED4F386957795679500
S1130AC0B795F795E7959F5FC1F7FE2B880F911DAA
S10F0AD09695879597F90895F894FFCF48
S9030000FC
