:100000000C943E000C9450000C9450000C94500042
:100010000C9450000C9450000C9450000C94C801A7
:100020000C94EE010C940E020C9450000C945000B1
:100030000C9450000C9450000C9450000C94500000
:100040000C9450000C9450000C947B010C945000C4
:100050000C9450000C9450000C9450000C945000E0
:100060000C9450000C9450000C9450000C945000D0
:100070000C9450000C9450000C94500011241FBE9E
:10008000CFEFD0E1DEBFCDBF21E0A0E0B1E001C005
:100090001D92AE30B207E1F70E9473020C94770311
:1000A0000C940000EF92FF920F931F93CF93DF9376
:1000B00081E08093D80080E00DEE10E06FEE70E0FC
:1000C0004EEE50E027EF30E0C6EFD0E0A5EFB0E015
:1000D0000F2EF4EFEF2EF12CF02D982F9295907FAC
:1000E000F8019083FB011082FA011082F90110825D
:1000F00018821C92F70110828F5F863071F78EE0B4
:100100008093E20084E08093E30083E18093E40045
:1001100080E28093DE0080EA8093DB0082E08093BF
:10012000D800FFEF20E782E0F15020408040E1F767
:1001300000C000008091D90082FB882780F991E0FF
:100140008927DF91CF911F910F91FF90EF90089534
:10015000CF92DF92EF92FF920F931F938295807F51
:100160008093ED001092F4001092F500822F82959A
:10017000880F807E8093F600DA01C901689412F836
:10018000B695A795979587951694D1F78093F70024
:100190001092F0001092F1008E2D8295880F807ED3
:1001A0008093F200D801C701689412F8B695A7951C
:1001B000979587951694D1F78093F30080E1C89EB8
:1001C000600111246068C62AC092EF001F910F9150
:1001D000FF90EF90DF90CF900895EF920F931F93D1
:1001E0008295807F8093ED00EEEEF0E080818F7B42
:1001F00080831092F400802F880F880F880F8093DF
:10020000F000D901C801689414F8B695A7959795A0
:1002100087951694D1F78093F100D901C801072E74
:100220007DE0B695A795979587957A95D1F7702D2E
:100230008093F2000F2EF5E13695279517950795D7
:10024000FA95D1F7F02D0093F300662371F0FA01CF
:100250008FEF860F90E00196480F591FAAEFB0E08C
:1002600081918C93E417F507D9F760656093EF00EF
:10027000EE20A1F08091EE0086FD10C080E0EEEE51
:10028000F0E003C0908196FD09C0AFE9BFE011978F
:10029000F1F700C000008F5FE812F4CF1F910F91BB
:1002A000EF900895CF93DF931092ED008091EE00D0
:1002B00086FD16C08091EF0086FF14C081E0ADEE90
:1002C000B0E0EEEEF0E0CFEED0E0982F9295907F88
:1002D0009C93908196FD0CC0988196FD05C008C046
:1002E00080E006C080E004C08F5F843071F78FEF3C
:1002F000DF91CF9108951F920F920FB60F921124A4
:10030000CF92EF92FF920F931F932F933F934F93B0
:100310005F936F937F938F939F93AF93BF93EF936D
:10032000FF938091E00085FF1DC080E58093ED0084
:10033000EAEFF0E0808180930D01808180818081EF
:100340008081808180818081CC24C394E12CF12C38
:1003500000E014E020E030E040E054E068E085E0B8
:100360000E94A800FF91EF91BF91AF919F918F9153
:100370007F916F915F914F913F912F911F910F91BD
:10038000FF90EF90CF900F900FBE0F901F90189599
:100390001F920F920FB60F9211248F939F9395B1D6
:1003A00088E0892785B910920C0110920B011092F8
:1003B000B6005898409828984E9B05C0589A80E3FC
:1003C0008093B60004C0289A83E08093B6009F9182
:1003D0008F910F900FBE0F901F9018951F920F9244
:1003E0000FB60F9211248F9310920C0110920B01F3
:1003F0001092B6005898409828981A9B05C0409AC9
:1004000083E08093B60004C0589A8CE08093B600D5
:100410008F910F900FBE0F901F9018951F920F9203
:100420000FB60F9211248F9310920C0110920B01B2
:100430001092B6005898409828981D9B05C0289A9D
:100440008CE08093B60004C0409A80E38093B600AD
:100450008F910F900FBE0F901F90189523B193B1FD
:1004600089B1207230E0A90155954795559547957A
:10047000559547959470292F30E035952795240F91
:1004800086FB882780F9820F08950E942E02833010
:10049000B1F028F4813049F0823061F00895853060
:1004A000C1F090F08630D1F00895589A8CE0809396
:1004B000B6000895409A80E38093B6000895589A54
:1004C00080E38093B6000895289A83E08093B60075
:1004D0000895289A8CE08093B6000895409A83E0AE
:1004E0008093B600089584B18B6C84B987B1856818
:1004F00087B98AB181688AB985B1847385B9409812
:10050000589885B1846285B95E9A82E089BD85E19B
:100510008093690087E08DBB80E091E09093B30009
:100520008093B2008CED90E09093AD008093AC008E
:100530009093A7008093A6009093A1008093A000C1
:1005400082ED90E09093B1008093B0009093AB0067
:100550008093AA009093A5008093A4008CE18093DF
:10056000B50081E28093B7000E945200CC24C3946E
:10057000E12CF12C00E014E020E030E040E054E019
:1005800068E085E00E94A80078941092B600589820
:1005900040982898C6EBD0E00F2EFCEA6F2E712C05
:1005A000F02D0F2EF6EA8F2E912CF02D0F2EF0EA63
:1005B000AF2EB12CF02D0F2EF0EB4F2E512CF02D35
:1005C0000F2EF1E0CF2EF1E0DF2EF02D0F2EFAEFFF
:1005D000FF2EF02D0F2EFEEB2F2EF02D0F2EF3E021
:1005E000EF2EF02D04EA10E03324339480910D01B6
:1005F0002F2D281B20930A0180910A018E3B10F4B5
:1006000020920A01809109018130D9F480910A0178
:1006100090E0F30191838083F40191838083F5015D
:100620009183808380910A0190E00A97F20191837F
:100630008083EAEAF0E091838083F80191838083EC
:1006400004C01882E8824098289880910B0190910C
:100650000C01883E934048F480910B0190910C016D
:10066000019690930C0180930B0180910B01909166
:100670000C01883E934020F0109209012B9803C092
:10068000309209012B9A8091090181110CC080914F
:100690000A01813E40F40E94450230920901109205
:1006A0000C0110920B0180910001813009F09ECF66
:1006B0001092000180910901F601808380910A0166
:1006C000818380910B0190910C01928380910B01A9
:1006D00090910C0183830E945201E12C00E010E014
:1006E00020E035E0A60168E00E94ED006FCFF894AD
:0206F000FFCF3A
:00000001FF
