:100000000C943E000C9450000C9450000C94500042
:100010000C9450000C9450000C9450000C943A0135
:100020000C9460010C9480010C9450000C945000CE
:100030000C9450000C9450000C9450000C94500000
:100040000C9450000C9450000C94ED000C94500053
:100050000C9450000C9450000C9450000C945000E0
:100060000C9450000C9450000C9450000C945000D0
:100070000C9450000C9450000C94500011241FBE9E
:10008000CFEFD0E1DEBFCDBF21E0A0E0B1E001C005
:100090001D92A530B207E1F70E94E5010C946704B8
:1000A0000C940000EF92FF920F931F93CF93DF9376
:1000B00081E08093D80080E00DEE10E06FEE70E0FC
:1000C0004EEE50E027EF30E0C6EFD0E0A5EFB0E015
:1000D0000F2EF4EFEF2EF12CF02D982F9295907FAC
:1000E000F8019083FB011082FA011082F90110825D
:1000F00018821C92F70110828F5F863071F78EE0B4
:100100008093E20084E08093E30083E18093E40045
:1001100080E28093DE0080EA8093DB0082E08093BF
:10012000D800FFEF20E782E0F15020408040E1F767
:1001300000C000008091D90082FB882780F991E0FF
:100140008927DF91CF911F910F91FF90EF90089534
:10015000CF92DF92EF92FF920F931F938295807F51
:100160008093ED001092F4001092F500822F82959A
:10017000880F807E8093F600DA01C901689412F836
:10018000B695A795979587951694D1F78093F70024
:100190001092F0001092F1008E2D8295880F807ED3
:1001A0008093F200D801C701689412F8B695A7951C
:1001B000979587951694D1F78093F30080E1C89EB8
:1001C000600111246068C62AC092EF001F910F9150
:1001D000FF90EF90DF90CF9008951F920F920FB68F
:1001E0000F921124CF92EF92FF920F931F932F93B0
:1001F0003F934F935F936F937F938F939F93AF93AF
:10020000BF93EF93FF938091E00085FF1DC080E5D1
:100210008093ED00EAEFF0E080818093040180811B
:10022000808180818081808180818081CC24C39481
:10023000E12CF12C00E014E020E030E040E054E05C
:1002400068E085E00E94A800FF91EF91BF91AF9117
:100250009F918F917F916F915F914F913F912F91DE
:100260001F910F91FF90EF90CF900F900FBE0F90C6
:100270001F9018951F920F920FB60F9211248F9313
:100280009F9395B188E0892785B910920301109258
:1002900002011092B6005898409828984E9B05C0CD
:1002A000409A80E38093B60004C08CE08093B6004F
:1002B000289A9F918F910F900FBE0F901F901895C5
:1002C0001F920F920FB60F9211248F931092030179
:1002D000109202011092B6005898409828981A9BE4
:1002E00005C083E08093B600289A04C080E3809321
:1002F000B600589A8F910F900FBE0F901F901895CF
:100300001F920F920FB60F9211248F931092030138
:10031000109202011092B6005898409828981D9BA0
:1003200005C08CE08093B600589A04C0409A83E0E0
:100330008093B6008F910F900FBE0F901F9018956D
:1003400023B193B189B1207230E0A9015595479549
:1003500055954795559547959470292F30E03595DB
:100360002795240F86FB882780F9820F08950E9425
:10037000A0018330B1F028F4813049F0823061F07F
:1003800008958530C1F090F08630D1F0089583E073
:100390008093B600409A0895289A8CE08093B60026
:1003A0000895289A83E08093B600089580E38093AF
:1003B000B600589A089580E38093B600409A089555
:1003C000589A8CE08093B600089584B18B6C84B900
:1003D00087B1856887B98AB181688AB985B1847324
:1003E00085B94098589885B1846285B95E9A82E053
:1003F00089BD85E18093690087E08DBB80E091E055
:100400009093B3008093B2008CED90E09093AD0098
:100410008093AC009093A7008093A6009093A100D6
:100420008093A00082ED90E09093B1008093B000A3
:100430009093AB008093AA009093A5008093A400B2
:100440008CE18093B50081E28093B7000E94520056
:10045000CC24C394E12CF12C00E014E020E030E047
:1004600040E054E068E085E00E94A8007894109293
:10047000B6005898409828980F2EF4E14F2EF02D92
:10048000C6EBD0E00F2EFCEA8F2E912CF02D0F2E14
:10049000F6EAAF2EB12CF02D0F2EF0EACF2ED12C94
:1004A000F02D0F2EF0EBEF2EF12CF02D0AEA10E0DC
:1004B0000F2EF4EA6F2E712CF02D55245394609179
:1004C000040170E080E090E00E946E032DEC3CECB3
:1004D0004CE050E40E94FA039B01AC0160E070E044
:1004E0008AE793E40E94D0020E943D0360930101D9
:1004F00080910101843110F440920101809100014A
:100500008130D1F48091010190E0F40191838083E6
:10051000F50191838083F6019183808380910101AD
:1005200090E00A97F70191838083F801918380839B
:10053000F3019183808304C01882589840982898CA
:100540008091020190910301883E934048F480918C
:10055000020190910301019690930301809302019F
:100560008091020190910301883E934020F0109207
:1005700000012B9803C0509200012B9A809100013A
:1005800081119DCF80910101863908F098CF0E949A
:10059000B7015092000110920301109202018FCF17
:1005A0005058BB27AA270E94E8020C94C0030E945F
:1005B000B20338F00E94B90320F039F49F3F19F4D8
:1005C00026F40C94AF030EF4E095E7FB0C94A9031A
:1005D000E92F0E94D10358F3BA1762077307840703
:1005E000950720F079F4A6F50C94F3030EF4E0954A
:1005F0000B2EBA2FA02D0B01B90190010C01CA01DD
:10060000A0011124FF27591B99F0593F50F4503E87
:1006100068F11A16F040A22F232F342F4427585F79
:10062000F3CF469537952795A795F0405395C9F791
:100630007EF41F16BA0B620B730B840BBAF0915049
:10064000A1F0FF0FBB1F661F771F881FC2F70EC0E8
:10065000BA0F621F731F841F48F4879577956795BB
:10066000B795F7959E3F08F0B0CF9395880F08F0A7
:100670009927EE0F9795879508950E94D90388F0E2
:100680009F5798F0B92F9927B751B0F0E1F0660F56
:10069000771F881F991F1AF0BA95C9F714C0B13097
:1006A00091F00E94F303B1E008950C94F303672FD7
:1006B000782F8827B85F39F0B93FCCF386957795C6
:1006C0006795B395D9F73EF49095809570956195AF
:1006D0007F4F8F4F9F4F0895E89409C097FB3EF4DA
:1006E00090958095709561957F4F8F4F9F4F99237F
:1006F000A9F0F92F96E9BB279395F69587957795FD
:100700006795B795F111F8CFFAF4BB0F11F460FFBC
:100710001BC06F5F7F4F8F4F9F4F16C0882311F014
:1007200096E911C0772321F09EE8872F762F05C028
:10073000662371F096E8862F70E060E02AF09A95C3
:10074000660F771F881FDAF7880F9695879597F9B8
:10075000089597F99F6780E870E060E008959FEF43
:1007600080EC089500240A94161617061806090648
:10077000089500240A941216130614060506089517
:10078000092E0394000C11F4882352F0BB0F40F49F
:10079000BF2B11F460FF04C06F5F7F4F8F4F9F4FDF
:1007A000089557FD9058440F551F59F05F3F71F061
:1007B0004795880F97FB991F61F09F3F79F08795C8
:1007C0000895121613061406551FF2CF4695F1DF51
:1007D00008C0161617061806991FF1CF86957105E1
:1007E000610508940895E894BB2766277727CB0115
:1007F00097F908950E940D040C94C0030E94B2035F
:1008000038F00E94B90320F0952311F00C94A9034D
:100810000C94AF0311240C94F4030E94D10370F3E1
:10082000959FC1F3950F50E0551F629FF001729F95
:10083000BB27F00DB11D639FAA27F00DB11DAA1FA4
:10084000649F6627B00DA11D661F829F2227B00DF1
:10085000A11D621F739FB00DA11D621F839FA00D7C
:10086000611D221F749F3327A00D611D231F849FCC
:10087000600D211D822F762F6A2F11249F57504023
:100880009AF0F1F088234AF0EE0FFF1FBB1F661F9E
:10089000771F881F91505040A9F79E3F510580F067
:1008A0000C94A9030C94F4035F3FE4F3983ED4F353
:1008B000869577956795B795F795E7959F5FC1F70B
:1008C000FE2B880F911D9695879597F90895F894BA
:0208D000FFCF58
:00000001FF
