:100000000C943E000C9450000C9450000C94500042
:100010000C9450000C9450000C9450000C943A0135
:100020000C9460010C9480010C9450000C945000CE
:100030000C9450000C9450000C9450000C94500000
:100040000C9450000C9450000C94ED000C94500053
:100050000C9450000C9450000C9450000C945000E0
:100060000C9450000C9450000C9450000C945000D0
:100070000C9450000C9450000C94500011241FBE9E
:10008000CFEFD0E1DEBFCDBF21E0A0E0B1E001C005
:100090001D92A530B207E1F70E94E5010C94C10260
:1000A0000C940000EF92FF920F931F93CF93DF9376
:1000B00081E08093D80080E00DEE10E06FEE70E0FC
:1000C0004EEE50E027EF30E0C6EFD0E0A5EFB0E015
:1000D0000F2EF4EFEF2EF12CF02D982F9295907FAC
:1000E000F8019083FB011082FA011082F90110825D
:1000F00018821C92F70110828F5F863071F78EE0B4
:100100008093E20084E08093E30083E18093E40045
:1001100080E28093DE0080EA8093DB0082E08093BF
:10012000D800FFEF20E782E0F15020408040E1F767
:1001300000C000008091D90082FB882780F991E0FF
:100140008927DF91CF911F910F91FF90EF90089534
:10015000CF92DF92EF92FF920F931F938295807F51
:100160008093ED001092F4001092F500822F82959A
:10017000880F807E8093F600DA01C901689412F836
:10018000B695A795979587951694D1F78093F70024
:100190001092F0001092F1008E2D8295880F807ED3
:1001A0008093F200D801C701689412F8B695A7951C
:1001B000979587951694D1F78093F30080E1C89EB8
:1001C000600111246068C62AC092EF001F910F9150
:1001D000FF90EF90DF90CF9008951F920F920FB68F
:1001E0000F921124CF92EF92FF920F931F932F93B0
:1001F0003F934F935F936F937F938F939F93AF93AF
:10020000BF93EF93FF938091E00085FF1DC080E5D1
:100210008093ED00EAEFF0E080818093040180811B
:10022000808180818081808180818081CC24C39481
:10023000E12CF12C00E014E020E030E040E054E05C
:1002400068E085E00E94A800FF91EF91BF91AF9117
:100250009F918F917F916F915F914F913F912F91DE
:100260001F910F91FF90EF90CF900F900FBE0F90C6
:100270001F9018951F920F920FB60F9211248F9313
:100280009F9395B188E0892785B910920301109258
:1002900002011092B6005898409828984E9B05C0CD
:1002A000409A80E38093B60004C08CE08093B6004F
:1002B000289A9F918F910F900FBE0F901F901895C5
:1002C0001F920F920FB60F9211248F931092030179
:1002D000109202011092B6005898409828981A9BE4
:1002E00005C083E08093B600289A04C080E3809321
:1002F000B600589A8F910F900FBE0F901F901895CF
:100300001F920F920FB60F9211248F931092030138
:10031000109202011092B6005898409828981D9BA0
:1003200005C08CE08093B600589A04C0409A83E0E0
:100330008093B6008F910F900FBE0F901F9018956D
:1003400023B193B189B1207230E0A9015595479549
:1003500055954795559547959470292F30E03595DB
:100360002795240F86FB882780F9820F08950E9425
:10037000A0018330B1F028F4813049F0823061F07F
:1003800008958530C1F090F08630D1F0089583E073
:100390008093B600409A0895289A8CE08093B60026
:1003A0000895289A83E08093B600089580E38093AF
:1003B000B600589A089580E38093B600409A089555
:1003C000589A8CE08093B600089584B18B6C84B900
:1003D00087B1856887B98AB181688AB985B1847324
:1003E00085B94098589885B1846285B95E9A82E053
:1003F00089BD85E18093690087E08DBB80E091E055
:100400009093B3008093B2008CED90E09093AD0098
:100410008093AC009093A7008093A6009093A100D6
:100420008093A00082ED90E09093B1008093B000A3
:100430009093AB008093AA009093A5008093A400B2
:100440008CE18093B50081E28093B7000E94520056
:10045000CC24C394E12CF12C00E014E020E030E047
:1004600040E054E068E085E00E94A8007894109293
:10047000B6005898409828980F2EFAEF5F2EF02D6E
:100480000F2EFEEB3F2EF02DC6EBD0E00F2EFCEA38
:10049000AF2EB12CF02D0F2EF6EACF2ED12CF02D51
:1004A0000F2EF0EAEF2EF12CF02D00EB10E00F2EC6
:1004B000FAEA8F2E912CF02D0F2EF4EA6F2E712C6C
:1004C000F02D4424439480910401252D281B209372
:1004D0000101809101018E3B10F430920101809165
:1004E00000018130D1F48091010190E0F501918308
:1004F0008083F60191838083F701918380838091CB
:10050000010190E00A97F80191838083F4019183BF
:100510008083F3019183808304C0188258984098A7
:1005200028988091020190910301883E934048F4FD
:1005300080910201909103010196909303018093B1
:1005400002018091020190910301883E934020F0C6
:10055000109200012B9803C0409200012B9A8091C9
:1005600000018111B0CF80910101813E08F0ABCF35
:100570000E94B70140920001109203011092020103
:06058000A2CFF894FFCFAA
:00000001FF
